{
  "transactions": [
    {
      "hash": "0xac1ce086fe6c5d584edf5646c6e9a78ac7eab727346e0cfcfa274a19cb8e3761",
      "transactionType": "CALL",
      "contractName": null,
      "contractAddress": "0xb63c53cab400622bb1e6ad65e098e7fac7ca7e9d",
      "function": "setPeer(uint32,bytes32)",
      "arguments": [
        "40231",
        "0x000000000000000000000000b63c53cab400622bb1e6ad65e098e7fac7ca7e9d"
      ],
      "transaction": {
        "from": "0xa5ea1cb1033f5d3bd207bf6a2a2504cf1c3e9f42",
        "to": "0xb63c53cab400622bb1e6ad65e098e7fac7ca7e9d",
        "gas": "0xf95f",
        "value": "0x0",
        "input": "0x3400288b0000000000000000000000000000000000000000000000000000000000009d27000000000000000000000000b63c53cab400622bb1e6ad65e098e7fac7ca7e9d",
        "nonce": "0x3a4",
        "chainId": "0x66eee"
      },
      "additionalContracts": [],
      "isFixedGasLimit": false
    },
    {
      "hash": "0x3c246bf1701a99b4a8fd6095754120162fdc8c92b549e3bec373630360dc0e29",
      "transactionType": "CALL",
      "contractName": null,
      "contractAddress": "0xb63c53cab400622bb1e6ad65e098e7fac7ca7e9d",
      "function": "setPeer(uint32,bytes32)",
      "arguments": [
        "40245",
        "0x00000000000000000000000050df5e25ab60e150f753b9444d160a80f0279559"
      ],
      "transaction": {
        "from": "0xa5ea1cb1033f5d3bd207bf6a2a2504cf1c3e9f42",
        "to": "0xb63c53cab400622bb1e6ad65e098e7fac7ca7e9d",
        "gas": "0xf96e",
        "value": "0x0",
        "input": "0x3400288b0000000000000000000000000000000000000000000000000000000000009d3500000000000000000000000050df5e25ab60e150f753b9444d160a80f0279559",
        "nonce": "0x3a5",
        "chainId": "0x66eee"
      },
      "additionalContracts": [],
      "isFixedGasLimit": false
    }
  ],
  "receipts": [
    {
      "status": "0x1",
      "cumulativeGasUsed": "0x8c42f",
      "logs": [
        {
          "address": "0xb63c53cab400622bb1e6ad65e098e7fac7ca7e9d",
          "topics": [
            "0x238399d427b947898edb290f5ff0f9109849b1c3ba196a42e35f00c50a54b98b"
          ],
          "data": "0x0000000000000000000000000000000000000000000000000000000000009d27000000000000000000000000b63c53cab400622bb1e6ad65e098e7fac7ca7e9d",
          "blockHash": "0xa73fb9e680582404e52da196a8a8c500dfd0f1144f41f3fa6e2684293038e01b",
          "blockNumber": "0xb2e9227",
          "transactionHash": "0xac1ce086fe6c5d584edf5646c6e9a78ac7eab727346e0cfcfa274a19cb8e3761",
          "transactionIndex": "0x6",
          "logIndex": "0xf",
          "removed": false
        }
      ],
      "logsBloom": "0x00000000000000000000000000000000000000000000000000000000000000000004000000000000000000000000000000000000000000000800000000000000000000000000000000000000000000000000000000800000000000000000000000000000000000000000000000000000000000000000000000000000000000000000000000000000000000000000000000000000000000000000000000000000000000000000000000000000000000000000000000000000000002000000000000000000000000000000000000000000000000000000000000040000000000000000000000000000000040000000000000000000000000000000000000000000",
      "type": "0x2",
      "transactionHash": "0xac1ce086fe6c5d584edf5646c6e9a78ac7eab727346e0cfcfa274a19cb8e3761",
      "transactionIndex": "0x6",
      "blockHash": "0xa73fb9e680582404e52da196a8a8c500dfd0f1144f41f3fa6e2684293038e01b",
      "blockNumber": "0xb2e9227",
      "gasUsed": "0xbdf0",
      "effectiveGasPrice": "0x5f5e100",
      "from": "0xa5ea1cb1033f5d3bd207bf6a2a2504cf1c3e9f42",
      "to": "0xb63c53cab400622bb1e6ad65e098e7fac7ca7e9d",
      "contractAddress": null,
      "gasUsedForL1": "0x189",
      "l1BlockNumber": "0x8a472f",
      "timeboosted": false
    },
    {
      "status": "0x1",
      "cumulativeGasUsed": "0xbe6a",
      "logs": [
        {
          "address": "0xb63c53cab400622bb1e6ad65e098e7fac7ca7e9d",
          "topics": [
            "0x238399d427b947898edb290f5ff0f9109849b1c3ba196a42e35f00c50a54b98b"
          ],
          "data": "0x0000000000000000000000000000000000000000000000000000000000009d3500000000000000000000000050df5e25ab60e150f753b9444d160a80f0279559",
          "blockHash": "0x26f118593153c75190215a38ab4394c0e8776e996ad1d71f91347250c62171ac",
          "blockNumber": "0xb2e9238",
          "transactionHash": "0x3c246bf1701a99b4a8fd6095754120162fdc8c92b549e3bec373630360dc0e29",
          "transactionIndex": "0x1",
          "logIndex": "0x0",
          "removed": false
        }
      ],
      "logsBloom": "0x00000000000000000000000000000000000000000000000000000000000000000004000000000000000000000000000000000000000000000800000000000000000000000000000000000000000000000000000000800000000000000000000000000000000000000000000000000000000000000000000000000000000000000000000000000000000000000000000000000000000000000000000000000000000000000000000000000000000000000000000000000000000002000000000000000000000000000000000000000000000000000000000000040000000000000000000000000000000040000000000000000000000000000000000000000000",
      "type": "0x2",
      "transactionHash": "0x3c246bf1701a99b4a8fd6095754120162fdc8c92b549e3bec373630360dc0e29",
      "transactionIndex": "0x1",
      "blockHash": "0x26f118593153c75190215a38ab4394c0e8776e996ad1d71f91347250c62171ac",
      "blockNumber": "0xb2e9238",
      "gasUsed": "0xbe6a",
      "effectiveGasPrice": "0x5f5e100",
      "from": "0xa5ea1cb1033f5d3bd207bf6a2a2504cf1c3e9f42",
      "to": "0xb63c53cab400622bb1e6ad65e098e7fac7ca7e9d",
      "contractAddress": null,
      "gasUsedForL1": "0x1f7",
      "l1BlockNumber": "0x8a4730",
      "timeboosted": false
    }
  ],
  "libraries": [],
  "pending": [],
  "returns": {},
  "timestamp": 1756143081094,
  "chain": 421614,
  "commit": "c1646ab"
}