{
  "transactions": [
    {
      "hash": "0x4cd75c3d76d911d8f68990c344d9816bee3fdd00be2cb773a5d8f5727901aebc",
      "transactionType": "CALL",
      "contractName": null,
      "contractAddress": "0x47e64f8615718d1a3fa34efe7e7b96aa9ac8b7f4",
      "function": "approve(address,uint256)",
      "arguments": [
        "0x50df5e25AB60e150f753B9444D160a80f0279559",
        "1000000000"
      ],
      "transaction": {
        "from": "0xa5ea1cb1033f5d3bd207bf6a2a2504cf1c3e9f42",
        "to": "0x47e64f8615718d1a3fa34efe7e7b96aa9ac8b7f4",
        "gas": "0x91c1",
        "value": "0x0",
        "input": "0x095ea7b300000000000000000000000050df5e25ab60e150f753b9444d160a80f0279559000000000000000000000000000000000000000000000000000000003b9aca00",
        "nonce": "0x1da",
        "chainId": "0x14a34"
      },
      "additionalContracts": [],
      "isFixedGasLimit": false
    },
    {
      "hash": "0x2299d079de1681e108150b17555ecc846f2dcad4afae965902e0bd99f8e329cd",
      "transactionType": "CALL",
      "contractName": null,
      "contractAddress": "0x50df5e25ab60e150f753b9444d160a80f0279559",
      "function": "send((uint32,bytes32,uint256,uint256,bytes,bytes,bytes),(uint256,uint256),address)",
      "arguments": [
        "(40231, 0x000000000000000000000000a5ea1cb1033f5d3bd207bf6a2a2504cf1c3e9f42, 1000000000, 950000000, 0x0003010011010000000000000000000000000000fde8, 0x, 0x)",
        "(80430535722449, 0)",
        "0x1804c8AB1F12E6bbf3894d4083f33e07309d1f38"
      ],
      "transaction": {
        "from": "0xa5ea1cb1033f5d3bd207bf6a2a2504cf1c3e9f42",
        "to": "0x50df5e25ab60e150f753b9444d160a80f0279559",
        "gas": "0x4ff46",
        "value": "0x4926b182c5d1",
        "input": "0xc7c7f5b3000000000000000000000000000000000000000000000000000000000000008000000000000000000000000000000000000000000000000000004926b182c5d100000000000000000000000000000000000000000000000000000000000000000000000000000000000000001804c8ab1f12e6bbf3894d4083f33e07309d1f380000000000000000000000000000000000000000000000000000000000009d27000000000000000000000000a5ea1cb1033f5d3bd207bf6a2a2504cf1c3e9f42000000000000000000000000000000000000000000000000000000003b9aca0000000000000000000000000000000000000000000000000000000000389fd98000000000000000000000000000000000000000000000000000000000000000e00000000000000000000000000000000000000000000000000000000000000120000000000000000000000000000000000000000000000000000000000000014000000000000000000000000000000000000000000000000000000000000000160003010011010000000000000000000000000000fde80000000000000000000000000000000000000000000000000000000000000000000000000000000000000000000000000000000000000000000000000000000000000000000000000000",
        "nonce": "0x1db",
        "chainId": "0x14a34"
      },
      "additionalContracts": [],
      "isFixedGasLimit": false
    }
  ],
  "receipts": [
    {
      "status": "0x1",
      "cumulativeGasUsed": "0x5a1a3d",
      "logs": [
        {
          "address": "0x47e64f8615718d1a3fa34efe7e7b96aa9ac8b7f4",
          "topics": [
            "0x8c5be1e5ebec7d5bd14f71427d1e84f3dd0314c0f7b2291e5b200ac8c7c3b925",
            "0x000000000000000000000000a5ea1cb1033f5d3bd207bf6a2a2504cf1c3e9f42",
            "0x00000000000000000000000050df5e25ab60e150f753b9444d160a80f0279559"
          ],
          "data": "0x000000000000000000000000000000000000000000000000000000003b9aca00",
          "blockHash": "0xbcc59bd8dbb8c3c6ee7974194c30611c8e14ecc5bee71377f70eb55e92fea06f",
          "blockNumber": "0x1cc9fa6",
          "blockTimestamp": "0x68ac9e2c",
          "transactionHash": "0x4cd75c3d76d911d8f68990c344d9816bee3fdd00be2cb773a5d8f5727901aebc",
          "transactionIndex": "0x15",
          "logIndex": "0xc0",
          "removed": false
        }
      ],
      "logsBloom": "0x00000000000000000000000000000000000040000000000000000000000000000000000000000000001000000000000000000000000000000000000020200000008000000000000000000000000000000000000000000000000000000000000000000000000000000000000000000000000000000000100000000000000000000000000000000000000000000000000000000000000000000000000000000000020000000000000000000000000000000000000000000000000000000000012000000000000000000000000000000020000000000000000000000000008000000010000000000000000000000000000000000000000000000000000000000000",
      "type": "0x2",
      "transactionHash": "0x4cd75c3d76d911d8f68990c344d9816bee3fdd00be2cb773a5d8f5727901aebc",
      "transactionIndex": "0x15",
      "blockHash": "0xbcc59bd8dbb8c3c6ee7974194c30611c8e14ecc5bee71377f70eb55e92fea06f",
      "blockNumber": "0x1cc9fa6",
      "gasUsed": "0x6987",
      "effectiveGasPrice": "0xf4298",
      "from": "0xa5ea1cb1033f5d3bd207bf6a2a2504cf1c3e9f42",
      "to": "0x47e64f8615718d1a3fa34efe7e7b96aa9ac8b7f4",
      "contractAddress": null,
      "l1BaseFeeScalar": "0x44d",
      "l1BlobBaseFee": "0x194b1661",
      "l1BlobBaseFeeScalar": "0xa118b",
      "l1Fee": "0x6955f61bd",
      "l1GasPrice": "0x94dfa2a",
      "l1GasUsed": "0x640"
    },
    {
      "status": "0x1",
      "cumulativeGasUsed": "0x5db86a",
      "logs": [
        {
          "address": "0x47e64f8615718d1a3fa34efe7e7b96aa9ac8b7f4",
          "topics": [
            "0xddf252ad1be2c89b69c2b068fc378daa952ba7f163c4a11628f55a4df523b3ef",
            "0x000000000000000000000000a5ea1cb1033f5d3bd207bf6a2a2504cf1c3e9f42",
            "0x0000000000000000000000000000000000000000000000000000000000000000"
          ],
          "data": "0x000000000000000000000000000000000000000000000000000000003b9aca00",
          "blockHash": "0xbcc59bd8dbb8c3c6ee7974194c30611c8e14ecc5bee71377f70eb55e92fea06f",
          "blockNumber": "0x1cc9fa6",
          "blockTimestamp": "0x68ac9e2c",
          "transactionHash": "0x2299d079de1681e108150b17555ecc846f2dcad4afae965902e0bd99f8e329cd",
          "transactionIndex": "0x16",
          "logIndex": "0xc1",
          "removed": false
        },
        {
          "address": "0xc1868e054425d378095a003ecba3823a5d0135c9",
          "topics": [
            "0x61ed099e74a97a1d7f8bb0952a88ca8b7b8ebd00c126ea04671f92a81213318a"
          ],
          "data": "0x0000000000000000000000008a3d588d9f6ac041476b094f97ff94ec30169d3d00000000000000000000000000000000000000000000000000003e3e12870f72",
          "blockHash": "0xbcc59bd8dbb8c3c6ee7974194c30611c8e14ecc5bee71377f70eb55e92fea06f",
          "blockNumber": "0x1cc9fa6",
          "blockTimestamp": "0x68ac9e2c",
          "transactionHash": "0x2299d079de1681e108150b17555ecc846f2dcad4afae965902e0bd99f8e329cd",
          "transactionIndex": "0x16",
          "logIndex": "0xc2",
          "removed": false
        },
        {
          "address": "0xc1868e054425d378095a003ecba3823a5d0135c9",
          "topics": [
            "0x07ea52d82345d6e838192107d8fd7123d9c2ec8e916cd0aad13fd2b60db24644"
          ],
          "data": "0x000000000000000000000000000000000000000000000000000000000000006000000000000000000000000000000000000000000000000000000000000000a000000000000000000000000000000000000000000000000000000000000000c00000000000000000000000000000000000000000000000000000000000000001000000000000000000000000e1a12515f9ab2764b887bf60b923ca494ebbb2d60000000000000000000000000000000000000000000000000000000000000000000000000000000000000000000000000000000000000000000000000000000100000000000000000000000000000000000000000000000000000ae89efbb65f",
          "blockHash": "0xbcc59bd8dbb8c3c6ee7974194c30611c8e14ecc5bee71377f70eb55e92fea06f",
          "blockNumber": "0x1cc9fa6",
          "blockTimestamp": "0x68ac9e2c",
          "transactionHash": "0x2299d079de1681e108150b17555ecc846f2dcad4afae965902e0bd99f8e329cd",
          "transactionIndex": "0x16",
          "logIndex": "0xc3",
          "removed": false
        },
        {
          "address": "0x6edce65403992e310a62460808c4b910d972f10f",
          "topics": [
            "0x1ab700d4ced0c005b164c0f789fd09fcbb0156d4c2041b8a3bfbcd961cd1567f"
          ],
          "data": "0x00000000000000000000000000000000000000000000000000000000000000600000000000000000000000000000000000000000000000000000000000000120000000000000000000000000c1868e054425d378095a003ecba3823a5d0135c9000000000000000000000000000000000000000000000000000000000000009901000000000000000200009d3500000000000000000000000050df5e25ab60e150f753b9444d160a80f027955900009d27000000000000000000000000b63c53cab400622bb1e6ad65e098e7fac7ca7e9d944034fa1684da9abd730f864aa0c5a3d542e715e3205a9f4d9a40a65833c8cb000000000000000000000000a5ea1cb1033f5d3bd207bf6a2a2504cf1c3e9f42000000003b9aca0000000000000000000000000000000000000000000000000000000000000000000000000000002a000301001101000000000000000000000000000186a0010011010000000000000000000000000000fde800000000000000000000000000000000000000000000",
          "blockHash": "0xbcc59bd8dbb8c3c6ee7974194c30611c8e14ecc5bee71377f70eb55e92fea06f",
          "blockNumber": "0x1cc9fa6",
          "blockTimestamp": "0x68ac9e2c",
          "transactionHash": "0x2299d079de1681e108150b17555ecc846f2dcad4afae965902e0bd99f8e329cd",
          "transactionIndex": "0x16",
          "logIndex": "0xc4",
          "removed": false
        },
        {
          "address": "0x50df5e25ab60e150f753b9444d160a80f0279559",
          "topics": [
            "0x85496b760a4b7f8d66384b9df21b381f5d1b1e79f229a47aaf4c232edc2fe59a",
            "0x944034fa1684da9abd730f864aa0c5a3d542e715e3205a9f4d9a40a65833c8cb",
            "0x000000000000000000000000a5ea1cb1033f5d3bd207bf6a2a2504cf1c3e9f42"
          ],
          "data": "0x0000000000000000000000000000000000000000000000000000000000009d27000000000000000000000000000000000000000000000000000000003b9aca00000000000000000000000000000000000000000000000000000000003b9aca00",
          "blockHash": "0xbcc59bd8dbb8c3c6ee7974194c30611c8e14ecc5bee71377f70eb55e92fea06f",
          "blockNumber": "0x1cc9fa6",
          "blockTimestamp": "0x68ac9e2c",
          "transactionHash": "0x2299d079de1681e108150b17555ecc846f2dcad4afae965902e0bd99f8e329cd",
          "transactionIndex": "0x16",
          "logIndex": "0xc5",
          "removed": false
        }
      ],
      "logsBloom": "0x00000000000000000000000000000000000000000000000000000000000000000010000000000280200000000000000000000000000000000000000000000004008002000000000000000008000000000000000000000000000000020001000000000000020000008200000000000800000040000000100000000010000000000000000040000020000000080000000000000000000000000000000000000000000000008000000000100000000000000000000000400000000440000000012080000002000000000000000080000020000000000000000000000000008020000000040000000000000000000000002000000000008000000000000000000000",
      "type": "0x2",
      "transactionHash": "0x2299d079de1681e108150b17555ecc846f2dcad4afae965902e0bd99f8e329cd",
      "transactionIndex": "0x16",
      "blockHash": "0xbcc59bd8dbb8c3c6ee7974194c30611c8e14ecc5bee71377f70eb55e92fea06f",
      "blockNumber": "0x1cc9fa6",
      "gasUsed": "0x39e2d",
      "effectiveGasPrice": "0xf4298",
      "from": "0xa5ea1cb1033f5d3bd207bf6a2a2504cf1c3e9f42",
      "to": "0x50df5e25ab60e150f753b9444d160a80f0279559",
      "contractAddress": null,
      "l1BaseFeeScalar": "0x44d",
      "l1BlobBaseFee": "0x194b1661",
      "l1BlobBaseFeeScalar": "0xa118b",
      "l1Fee": "0xc10c5b082",
      "l1GasPrice": "0x94dfa2a",
      "l1GasUsed": "0xb74"
    }
  ],
  "libraries": [],
  "pending": [],
  "returns": {},
  "timestamp": 1756143147688,
  "chain": 84532,
  "commit": "c1646ab"
}