{
  "transactions": [
    {
      "hash": "0x2f45e662a816a3676e9dda855b5d807aaa1dd747de61b95aa16fe836cd2579c5",
      "transactionType": "CALL",
      "contractName": null,
      "contractAddress": "0xe95642e030b5d27d03dd255cc855a576fbc4f83d",
      "function": "approve(address,uint256)",
      "arguments": [
        "0x3BC24c85aFE8b53368E69dbB74c1130bf4545FB0",
        "100000"
      ],
      "transaction": {
        "from": "0xa5ea1cb1033f5d3bd207bf6a2a2504cf1c3e9f42",
        "to": "0xe95642e030b5d27d03dd255cc855a576fbc4f83d",
        "gas": "0x10c04",
        "value": "0x0",
        "input": "0x095ea7b30000000000000000000000003bc24c85afe8b53368e69dbb74c1130bf4545fb000000000000000000000000000000000000000000000000000000000000186a0",
        "nonce": "0x1fb",
        "chainId": "0x14a34"
      },
      "additionalContracts": [],
      "isFixedGasLimit": false
    },
    {
      "hash": "0x27c70c06b3ccc0523406c8fd0315ebf391f3b98851ac487fec4567b41fbf6a7f",
      "transactionType": "CALL",
      "contractName": null,
      "contractAddress": "0x3bc24c85afe8b53368e69dbb74c1130bf4545fb0",
      "function": "send((uint32,bytes32,uint256,uint256,bytes,bytes,bytes),(uint256,uint256),address)",
      "arguments": [
        "(40231, 0x000000000000000000000000a5ea1cb1033f5d3bd207bf6a2a2504cf1c3e9f42, 100000, 95000, 0x0003010011010000000000000000000000000000fde8, 0x, 0x)",
        "(80430535722449, 0)",
        "0x1804c8AB1F12E6bbf3894d4083f33e07309d1f38"
      ],
      "transaction": {
        "from": "0xa5ea1cb1033f5d3bd207bf6a2a2504cf1c3e9f42",
        "to": "0x3bc24c85afe8b53368e69dbb74c1130bf4545fb0",
        "gas": "0x55b79",
        "value": "0x4926b182c5d1",
        "input": "0xc7c7f5b3000000000000000000000000000000000000000000000000000000000000008000000000000000000000000000000000000000000000000000004926b182c5d100000000000000000000000000000000000000000000000000000000000000000000000000000000000000001804c8ab1f12e6bbf3894d4083f33e07309d1f380000000000000000000000000000000000000000000000000000000000009d27000000000000000000000000a5ea1cb1033f5d3bd207bf6a2a2504cf1c3e9f4200000000000000000000000000000000000000000000000000000000000186a0000000000000000000000000000000000000000000000000000000000001731800000000000000000000000000000000000000000000000000000000000000e00000000000000000000000000000000000000000000000000000000000000120000000000000000000000000000000000000000000000000000000000000014000000000000000000000000000000000000000000000000000000000000000160003010011010000000000000000000000000000fde80000000000000000000000000000000000000000000000000000000000000000000000000000000000000000000000000000000000000000000000000000000000000000000000000000",
        "nonce": "0x1fc",
        "chainId": "0x14a34"
      },
      "additionalContracts": [],
      "isFixedGasLimit": false
    }
  ],
  "receipts": [
    {
      "status": "0x1",
      "cumulativeGasUsed": "0x16d5df",
      "logs": [
        {
          "address": "0xe95642e030b5d27d03dd255cc855a576fbc4f83d",
          "topics": [
            "0x8c5be1e5ebec7d5bd14f71427d1e84f3dd0314c0f7b2291e5b200ac8c7c3b925",
            "0x000000000000000000000000a5ea1cb1033f5d3bd207bf6a2a2504cf1c3e9f42",
            "0x0000000000000000000000003bc24c85afe8b53368e69dbb74c1130bf4545fb0"
          ],
          "data": "0x00000000000000000000000000000000000000000000000000000000000186a0",
          "blockHash": "0x634484600bf75af8855bb8e5617b2bb4001a2918eb3c13bfe75eff8b5caf34c6",
          "blockNumber": "0x1cd0051",
          "blockTimestamp": "0x68ad5f82",
          "transactionHash": "0x2f45e662a816a3676e9dda855b5d807aaa1dd747de61b95aa16fe836cd2579c5",
          "transactionIndex": "0x6",
          "logIndex": "0x32",
          "removed": false
        }
      ],
      "logsBloom": "0x00000000000000000000000000010000000000000000000000000000000000000000000080000000000000000000000000000000000000000000000000200000008000000000000000000000000000000000000000000000000000000000000000000000000000000000000000000000000000000000100000000000000000000000000000000000000010000000000000000000000000000000000000000000020000000000000000000000000400000000000000000000000000000000000000000000000000000000000000000020000000000000010000000000000000000010000000000000000000000000000000040000000000000000000000000000",
      "type": "0x2",
      "transactionHash": "0x2f45e662a816a3676e9dda855b5d807aaa1dd747de61b95aa16fe836cd2579c5",
      "transactionIndex": "0x6",
      "blockHash": "0x634484600bf75af8855bb8e5617b2bb4001a2918eb3c13bfe75eff8b5caf34c6",
      "blockNumber": "0x1cd0051",
      "gasUsed": "0xb743",
      "effectiveGasPrice": "0xf4282",
      "from": "0xa5ea1cb1033f5d3bd207bf6a2a2504cf1c3e9f42",
      "to": "0xe95642e030b5d27d03dd255cc855a576fbc4f83d",
      "contractAddress": null,
      "l1BaseFeeScalar": "0x44d",
      "l1BlobBaseFee": "0x1",
      "l1BlobBaseFeeScalar": "0xa118b",
      "l1Fee": "0xce6489",
      "l1GasPrice": "0x752959",
      "l1GasUsed": "0x640"
    },
    {
      "status": "0x1",
      "cumulativeGasUsed": "0x1ab6cc",
      "logs": [
        {
          "address": "0xe95642e030b5d27d03dd255cc855a576fbc4f83d",
          "topics": [
            "0xddf252ad1be2c89b69c2b068fc378daa952ba7f163c4a11628f55a4df523b3ef",
            "0x000000000000000000000000a5ea1cb1033f5d3bd207bf6a2a2504cf1c3e9f42",
            "0x0000000000000000000000000000000000000000000000000000000000000000"
          ],
          "data": "0x00000000000000000000000000000000000000000000000000000000000186a0",
          "blockHash": "0x634484600bf75af8855bb8e5617b2bb4001a2918eb3c13bfe75eff8b5caf34c6",
          "blockNumber": "0x1cd0051",
          "blockTimestamp": "0x68ad5f82",
          "transactionHash": "0x27c70c06b3ccc0523406c8fd0315ebf391f3b98851ac487fec4567b41fbf6a7f",
          "transactionIndex": "0x7",
          "logIndex": "0xa",
          "removed": false
        },
        {
          "address": "0xc1868e054425d378095a003ecba3823a5d0135c9",
          "topics": [
            "0x61ed099e74a97a1d7f8bb0952a88ca8b7b8ebd00c126ea04671f92a81213318a"
          ],
          "data": "0x0000000000000000000000008a3d588d9f6ac041476b094f97ff94ec30169d3d00000000000000000000000000000000000000000000000000003e3e12870f72",
          "blockHash": "0x634484600bf75af8855bb8e5617b2bb4001a2918eb3c13bfe75eff8b5caf34c6",
          "blockNumber": "0x1cd0051",
          "blockTimestamp": "0x68ad5f82",
          "transactionHash": "0x27c70c06b3ccc0523406c8fd0315ebf391f3b98851ac487fec4567b41fbf6a7f",
          "transactionIndex": "0x7",
          "logIndex": "0xb",
          "removed": false
        },
        {
          "address": "0xc1868e054425d378095a003ecba3823a5d0135c9",
          "topics": [
            "0x07ea52d82345d6e838192107d8fd7123d9c2ec8e916cd0aad13fd2b60db24644"
          ],
          "data": "0x000000000000000000000000000000000000000000000000000000000000006000000000000000000000000000000000000000000000000000000000000000a000000000000000000000000000000000000000000000000000000000000000c00000000000000000000000000000000000000000000000000000000000000001000000000000000000000000e1a12515f9ab2764b887bf60b923ca494ebbb2d60000000000000000000000000000000000000000000000000000000000000000000000000000000000000000000000000000000000000000000000000000000100000000000000000000000000000000000000000000000000000ae89efbb65f",
          "blockHash": "0x634484600bf75af8855bb8e5617b2bb4001a2918eb3c13bfe75eff8b5caf34c6",
          "blockNumber": "0x1cd0051",
          "blockTimestamp": "0x68ad5f82",
          "transactionHash": "0x27c70c06b3ccc0523406c8fd0315ebf391f3b98851ac487fec4567b41fbf6a7f",
          "transactionIndex": "0x7",
          "logIndex": "0xc",
          "removed": false
        },
        {
          "address": "0x6edce65403992e310a62460808c4b910d972f10f",
          "topics": [
            "0x1ab700d4ced0c005b164c0f789fd09fcbb0156d4c2041b8a3bfbcd961cd1567f"
          ],
          "data": "0x00000000000000000000000000000000000000000000000000000000000000600000000000000000000000000000000000000000000000000000000000000120000000000000000000000000c1868e054425d378095a003ecba3823a5d0135c9000000000000000000000000000000000000000000000000000000000000009901000000000000000100009d350000000000000000000000003bc24c85afe8b53368e69dbb74c1130bf4545fb000009d2700000000000000000000000064001099241e7d98d413df25b8d6a1c1962311170fb3fd4d505bd0605d8dcdcc90bfa6729f80f854da6f611c23bf956b8b9aaecf000000000000000000000000a5ea1cb1033f5d3bd207bf6a2a2504cf1c3e9f4200000000000186a000000000000000000000000000000000000000000000000000000000000000000000000000002a000301001101000000000000000000000000000186a0010011010000000000000000000000000000fde800000000000000000000000000000000000000000000",
          "blockHash": "0x634484600bf75af8855bb8e5617b2bb4001a2918eb3c13bfe75eff8b5caf34c6",
          "blockNumber": "0x1cd0051",
          "blockTimestamp": "0x68ad5f82",
          "transactionHash": "0x27c70c06b3ccc0523406c8fd0315ebf391f3b98851ac487fec4567b41fbf6a7f",
          "transactionIndex": "0x7",
          "logIndex": "0xd",
          "removed": false
        },
        {
          "address": "0x3bc24c85afe8b53368e69dbb74c1130bf4545fb0",
          "topics": [
            "0x85496b760a4b7f8d66384b9df21b381f5d1b1e79f229a47aaf4c232edc2fe59a",
            "0x0fb3fd4d505bd0605d8dcdcc90bfa6729f80f854da6f611c23bf956b8b9aaecf",
            "0x000000000000000000000000a5ea1cb1033f5d3bd207bf6a2a2504cf1c3e9f42"
          ],
          "data": "0x0000000000000000000000000000000000000000000000000000000000009d2700000000000000000000000000000000000000000000000000000000000186a000000000000000000000000000000000000000000000000000000000000186a0",
          "blockHash": "0x634484600bf75af8855bb8e5617b2bb4001a2918eb3c13bfe75eff8b5caf34c6",
          "blockNumber": "0x1cd0051",
          "blockTimestamp": "0x68ad5f82",
          "transactionHash": "0x27c70c06b3ccc0523406c8fd0315ebf391f3b98851ac487fec4567b41fbf6a7f",
          "transactionIndex": "0x7",
          "logIndex": "0xe",
          "removed": false
        }
      ],
      "logsBloom": "0x00000000000000000000000000000000000008000000000000000000000000000000000080000210200000000000000000000000000000000000000000000000008002000000000000000008000000000000000000000000000000020000000000000000020000008200000000000800000000000000100000400010040000000000000000000020000010080000000000000000200000000000000000000000000000008000000000100000000000000000001000400000000440000000000080000002000000000000000080000020000000000000010000000000000020000000040000000000000000000000002000000000008000000000000000000000",
      "type": "0x2",
      "transactionHash": "0x27c70c06b3ccc0523406c8fd0315ebf391f3b98851ac487fec4567b41fbf6a7f",
      "transactionIndex": "0x7",
      "blockHash": "0x634484600bf75af8855bb8e5617b2bb4001a2918eb3c13bfe75eff8b5caf34c6",
      "blockNumber": "0x1cd0051",
      "gasUsed": "0xf30fd",
      "effectiveGasPrice": "0xf4282",
      "from": "0xa5ea1cb1033f5d3bd207bf6a2a2504cf1c3e9f42",
      "to": "0x3bc24c85afe8b53368e69dbb74c1130bf4545fb0",
      "contractAddress": null,
      "l1BaseFeeScalar": "0x44d",
      "l1BlobBaseFee": "0x1",
      "l1BlobBaseFeeScalar": "0xa118b",
      "l1Fee": "0x182e318",
      "l1GasPrice": "0x752959",
      "l1GasUsed": "0xbb7"
    }
  ],
  "libraries": [],
  "pending": [],
  "returns": {},
  "timestamp": 1756192640957,
  "chain": 84532,
  "commit": "0d3f7ad"
}