{
  "transactions": [
    {
      "hash": "0x4bae35fba4024a4d7477e1fd7d649c7a2999e9140e68be29671fe0c51667acde",
      "transactionType": "CALL",
      "contractName": null,
      "contractAddress": "0x47e64f8615718d1a3fa34efe7e7b96aa9ac8b7f4",
      "function": "approve(address,uint256)",
      "arguments": [
        "0x50df5e25AB60e150f753B9444D160a80f0279559",
        "1000000000"
      ],
      "transaction": {
        "from": "0xa5ea1cb1033f5d3bd207bf6a2a2504cf1c3e9f42",
        "to": "0x47e64f8615718d1a3fa34efe7e7b96aa9ac8b7f4",
        "gas": "0x10c04",
        "value": "0x0",
        "input": "0x095ea7b300000000000000000000000050df5e25ab60e150f753b9444d160a80f0279559000000000000000000000000000000000000000000000000000000003b9aca00",
        "nonce": "0x1d6",
        "chainId": "0x14a34"
      },
      "additionalContracts": [],
      "isFixedGasLimit": false
    },
    {
      "hash": "0xb7ed6a5467024521b892e1ca48ca8d026f661a0d1ac42345dfb5a4a79009ab0b",
      "transactionType": "CALL",
      "contractName": null,
      "contractAddress": "0x50df5e25ab60e150f753b9444d160a80f0279559",
      "function": "send((uint32,bytes32,uint256,uint256,bytes,bytes,bytes),(uint256,uint256),address)",
      "arguments": [
        "(40245, 0x000000000000000000000000a5ea1cb1033f5d3bd207bf6a2a2504cf1c3e9f42, 1000000000, 950000000, 0x0003010011010000000000000000000000000000fde8, 0x, 0x)",
        "(116588929300561, 0)",
        "0x1804c8AB1F12E6bbf3894d4083f33e07309d1f38"
      ],
      "transaction": {
        "from": "0xa5ea1cb1033f5d3bd207bf6a2a2504cf1c3e9f42",
        "to": "0x50df5e25ab60e150f753b9444d160a80f0279559",
        "gas": "0x67987",
        "value": "0x6a0979b73851",
        "input": "0xc7c7f5b3000000000000000000000000000000000000000000000000000000000000008000000000000000000000000000000000000000000000000000006a0979b7385100000000000000000000000000000000000000000000000000000000000000000000000000000000000000001804c8ab1f12e6bbf3894d4083f33e07309d1f380000000000000000000000000000000000000000000000000000000000009d35000000000000000000000000a5ea1cb1033f5d3bd207bf6a2a2504cf1c3e9f42000000000000000000000000000000000000000000000000000000003b9aca0000000000000000000000000000000000000000000000000000000000389fd98000000000000000000000000000000000000000000000000000000000000000e00000000000000000000000000000000000000000000000000000000000000120000000000000000000000000000000000000000000000000000000000000014000000000000000000000000000000000000000000000000000000000000000160003010011010000000000000000000000000000fde80000000000000000000000000000000000000000000000000000000000000000000000000000000000000000000000000000000000000000000000000000000000000000000000000000",
        "nonce": "0x1d7",
        "chainId": "0x14a34"
      },
      "additionalContracts": [],
      "isFixedGasLimit": false
    }
  ],
  "receipts": [
    {
      "status": "0x1",
      "cumulativeGasUsed": "0x1b66a0",
      "logs": [
        {
          "address": "0x47e64f8615718d1a3fa34efe7e7b96aa9ac8b7f4",
          "topics": [
            "0x8c5be1e5ebec7d5bd14f71427d1e84f3dd0314c0f7b2291e5b200ac8c7c3b925",
            "0x000000000000000000000000a5ea1cb1033f5d3bd207bf6a2a2504cf1c3e9f42",
            "0x00000000000000000000000050df5e25ab60e150f753b9444d160a80f0279559"
          ],
          "data": "0x000000000000000000000000000000000000000000000000000000003b9aca00",
          "blockHash": "0x9ecaa7698c4dec004e41c5747c9e2222328ab58c26deda4478e98b1642dde9e6",
          "blockNumber": "0x1cc9d24",
          "blockTimestamp": "0x68ac9928",
          "transactionHash": "0x4bae35fba4024a4d7477e1fd7d649c7a2999e9140e68be29671fe0c51667acde",
          "transactionIndex": "0x6",
          "logIndex": "0x61",
          "removed": false
        }
      ],
      "logsBloom": "0x00000000000000000000000000000000000040000000000000000000000000000000000000000000001000000000000000000000000000000000000020200000008000000000000000000000000000000000000000000000000000000000000000000000000000000000000000000000000000000000100000000000000000000000000000000000000000000000000000000000000000000000000000000000020000000000000000000000000000000000000000000000000000000000012000000000000000000000000000000020000000000000000000000000008000000010000000000000000000000000000000000000000000000000000000000000",
      "type": "0x2",
      "transactionHash": "0x4bae35fba4024a4d7477e1fd7d649c7a2999e9140e68be29671fe0c51667acde",
      "transactionIndex": "0x6",
      "blockHash": "0x9ecaa7698c4dec004e41c5747c9e2222328ab58c26deda4478e98b1642dde9e6",
      "blockNumber": "0x1cc9d24",
      "gasUsed": "0xb743",
      "effectiveGasPrice": "0xf428f",
      "from": "0xa5ea1cb1033f5d3bd207bf6a2a2504cf1c3e9f42",
      "to": "0x47e64f8615718d1a3fa34efe7e7b96aa9ac8b7f4",
      "contractAddress": null,
      "l1BaseFeeScalar": "0x44d",
      "l1BlobBaseFee": "0xdda7ed5",
      "l1BlobBaseFeeScalar": "0xa118b",
      "l1Fee": "0x3a3ed20fc",
      "l1GasPrice": "0xa1b01f8",
      "l1GasUsed": "0x640"
    },
    {
      "status": "0x1",
      "cumulativeGasUsed": "0x34187f",
      "logs": [
        {
          "address": "0x47e64f8615718d1a3fa34efe7e7b96aa9ac8b7f4",
          "topics": [
            "0xddf252ad1be2c89b69c2b068fc378daa952ba7f163c4a11628f55a4df523b3ef",
            "0x000000000000000000000000a5ea1cb1033f5d3bd207bf6a2a2504cf1c3e9f42",
            "0x0000000000000000000000000000000000000000000000000000000000000000"
          ],
          "data": "0x000000000000000000000000000000000000000000000000000000003b9aca00",
          "blockHash": "0x2906b69247fda7d3f124e0fbcbe346ccdb0ee91c277def77504d412d187102c4",
          "blockNumber": "0x1cc9d24",
          "blockTimestamp": "0x68ac9928",
          "transactionHash": "0xb7ed6a5467024521b892e1ca48ca8d026f661a0d1ac42345dfb5a4a79009ab0b",
          "transactionIndex": "0xe",
          "logIndex": "0x95",
          "removed": false
        },
        {
          "address": "0xc1868e054425d378095a003ecba3823a5d0135c9",
          "topics": [
            "0x61ed099e74a97a1d7f8bb0952a88ca8b7b8ebd00c126ea04671f92a81213318a"
          ],
          "data": "0x0000000000000000000000008a3d588d9f6ac041476b094f97ff94ec30169d3d000000000000000000000000000000000000000000000000000047fca32594d2",
          "blockHash": "0x2906b69247fda7d3f124e0fbcbe346ccdb0ee91c277def77504d412d187102c4",
          "blockNumber": "0x1cc9d24",
          "blockTimestamp": "0x68ac9928",
          "transactionHash": "0xb7ed6a5467024521b892e1ca48ca8d026f661a0d1ac42345dfb5a4a79009ab0b",
          "transactionIndex": "0xe",
          "logIndex": "0x96",
          "removed": false
        },
        {
          "address": "0xc1868e054425d378095a003ecba3823a5d0135c9",
          "topics": [
            "0x07ea52d82345d6e838192107d8fd7123d9c2ec8e916cd0aad13fd2b60db24644"
          ],
          "data": "0x000000000000000000000000000000000000000000000000000000000000006000000000000000000000000000000000000000000000000000000000000000c000000000000000000000000000000000000000000000000000000000000000e00000000000000000000000000000000000000000000000000000000000000002000000000000000000000000df04abb599c7b37dd5ffc0f8e94f6898120874ef000000000000000000000000e1a12515f9ab2764b887bf60b923ca494ebbb2d6000000000000000000000000000000000000000000000000000000000000000000000000000000000000000000000000000000000000000000000000000000020000000000000000000000000000000000000000000000000000116a4720f0f3000000000000000000000000000000000000000000000000000010a28f70b28c",
          "blockHash": "0x2906b69247fda7d3f124e0fbcbe346ccdb0ee91c277def77504d412d187102c4",
          "blockNumber": "0x1cc9d24",
          "blockTimestamp": "0x68ac9928",
          "transactionHash": "0xb7ed6a5467024521b892e1ca48ca8d026f661a0d1ac42345dfb5a4a79009ab0b",
          "transactionIndex": "0xe",
          "logIndex": "0x97",
          "removed": false
        },
        {
          "address": "0x6edce65403992e310a62460808c4b910d972f10f",
          "topics": [
            "0x1ab700d4ced0c005b164c0f789fd09fcbb0156d4c2041b8a3bfbcd961cd1567f"
          ],
          "data": "0x00000000000000000000000000000000000000000000000000000000000000600000000000000000000000000000000000000000000000000000000000000120000000000000000000000000c1868e054425d378095a003ecba3823a5d0135c9000000000000000000000000000000000000000000000000000000000000009901000000000000000100009d3500000000000000000000000050df5e25ab60e150f753b9444d160a80f027955900009d3500000000000000000000000050df5e25ab60e150f753b9444d160a80f0279559e93685206137ff60cb6a3558a4d2dc61df12cf4e556937f58c623eee8bff343c000000000000000000000000a5ea1cb1033f5d3bd207bf6a2a2504cf1c3e9f42000000003b9aca0000000000000000000000000000000000000000000000000000000000000000000000000000002a00030100110100000000000000000000000000013880010011010000000000000000000000000000fde800000000000000000000000000000000000000000000",
          "blockHash": "0x2906b69247fda7d3f124e0fbcbe346ccdb0ee91c277def77504d412d187102c4",
          "blockNumber": "0x1cc9d24",
          "blockTimestamp": "0x68ac9928",
          "transactionHash": "0xb7ed6a5467024521b892e1ca48ca8d026f661a0d1ac42345dfb5a4a79009ab0b",
          "transactionIndex": "0xe",
          "logIndex": "0x98",
          "removed": false
        },
        {
          "address": "0x50df5e25ab60e150f753b9444d160a80f0279559",
          "topics": [
            "0x85496b760a4b7f8d66384b9df21b381f5d1b1e79f229a47aaf4c232edc2fe59a",
            "0xe93685206137ff60cb6a3558a4d2dc61df12cf4e556937f58c623eee8bff343c",
            "0x000000000000000000000000a5ea1cb1033f5d3bd207bf6a2a2504cf1c3e9f42"
          ],
          "data": "0x0000000000000000000000000000000000000000000000000000000000009d35000000000000000000000000000000000000000000000000000000003b9aca00000000000000000000000000000000000000000000000000000000003b9aca00",
          "blockHash": "0x2906b69247fda7d3f124e0fbcbe346ccdb0ee91c277def77504d412d187102c4",
          "blockNumber": "0x1cc9d24",
          "blockTimestamp": "0x68ac9928",
          "transactionHash": "0xb7ed6a5467024521b892e1ca48ca8d026f661a0d1ac42345dfb5a4a79009ab0b",
          "transactionIndex": "0xe",
          "logIndex": "0x99",
          "removed": false
        }
      ],
      "logsBloom": "0x00000000000000000000008000000000000000000000000000000000000000000010000000000280200000000000000000000000000000000000000000000004008002000000000000000008000000000000000000000000000000020000000000000000020000008200000000000800000000000000100000000010000000000000000000000020000000080000000000000000000000000000000000000000000000008000000000100000000000000000000000400000000440001000012080000002000000000000000080000020000000000000000000000000008020000000040000000000000000000000002000000000008000000000000000000000",
      "type": "0x2",
      "transactionHash": "0xb7ed6a5467024521b892e1ca48ca8d026f661a0d1ac42345dfb5a4a79009ab0b",
      "transactionIndex": "0xe",
      "blockHash": "0x2906b69247fda7d3f124e0fbcbe346ccdb0ee91c277def77504d412d187102c4",
      "blockNumber": "0x1cc9d24",
      "gasUsed": "0x46d5b",
      "effectiveGasPrice": "0xf428f",
      "from": "0xa5ea1cb1033f5d3bd207bf6a2a2504cf1c3e9f42",
      "to": "0x50df5e25ab60e150f753b9444d160a80f0279559",
      "contractAddress": null,
      "l1BaseFeeScalar": "0x44d",
      "l1BlobBaseFee": "0xdda7ed5",
      "l1BlobBaseFeeScalar": "0xa118b",
      "l1Fee": "0x6abef8ab3",
      "l1GasPrice": "0xa1b01f8",
      "l1GasUsed": "0xb74"
    }
  ],
  "libraries": [],
  "pending": [],
  "returns": {},
  "timestamp": 1756141864442,
  "chain": 84532,
  "commit": "c1646ab"
}