{
  "transactions": [
    {
      "hash": "0x8ec1a5339830bd3101202355e3868de9881d8471b4f8a1557b467d5399e5f330",
      "transactionType": "CALL",
      "contractName": null,
      "contractAddress": "0xb63c53cab400622bb1e6ad65e098e7fac7ca7e9d",
      "function": "setEnforcedOptions((uint32,uint16,bytes)[])",
      "arguments": [
        "[(40231, 1, 0x00030100110100000000000000000000000000013880), (40245, 1, 0x000301001101000000000000000000000000000186a0)]"
      ],
      "transaction": {
        "from": "0xa5ea1cb1033f5d3bd207bf6a2a2504cf1c3e9f42",
        "to": "0xb63c53cab400622bb1e6ad65e098e7fac7ca7e9d",
        "gas": "0x1ac9d",
        "value": "0x0",
        "input": "0xb98bd07000000000000000000000000000000000000000000000000000000000000000200000000000000000000000000000000000000000000000000000000000000002000000000000000000000000000000000000000000000000000000000000004000000000000000000000000000000000000000000000000000000000000000e00000000000000000000000000000000000000000000000000000000000009d2700000000000000000000000000000000000000000000000000000000000000010000000000000000000000000000000000000000000000000000000000000060000000000000000000000000000000000000000000000000000000000000001600030100110100000000000000000000000000013880000000000000000000000000000000000000000000000000000000000000000000000000000000009d35000000000000000000000000000000000000000000000000000000000000000100000000000000000000000000000000000000000000000000000000000000600000000000000000000000000000000000000000000000000000000000000016000301001101000000000000000000000000000186a000000000000000000000",
        "nonce": "0x3a6",
        "chainId": "0x66eee"
      },
      "additionalContracts": [],
      "isFixedGasLimit": false
    }
  ],
  "receipts": [
    {
      "status": "0x1",
      "cumulativeGasUsed": "0x87d08",
      "logs": [
        {
          "address": "0xb63c53cab400622bb1e6ad65e098e7fac7ca7e9d",
          "topics": [
            "0xbe4864a8e820971c0247f5992e2da559595f7bf076a21cb5928d443d2a13b674"
          ],
          "data": "0x00000000000000000000000000000000000000000000000000000000000000200000000000000000000000000000000000000000000000000000000000000002000000000000000000000000000000000000000000000000000000000000004000000000000000000000000000000000000000000000000000000000000000e00000000000000000000000000000000000000000000000000000000000009d2700000000000000000000000000000000000000000000000000000000000000010000000000000000000000000000000000000000000000000000000000000060000000000000000000000000000000000000000000000000000000000000001600030100110100000000000000000000000000013880000000000000000000000000000000000000000000000000000000000000000000000000000000009d35000000000000000000000000000000000000000000000000000000000000000100000000000000000000000000000000000000000000000000000000000000600000000000000000000000000000000000000000000000000000000000000016000301001101000000000000000000000000000186a000000000000000000000",
          "blockHash": "0x21df3e7bae10909873d3eaf1081f40060109d96a97d7bb878aa616642da1ce10",
          "blockNumber": "0xb2e9646",
          "transactionHash": "0x8ec1a5339830bd3101202355e3868de9881d8471b4f8a1557b467d5399e5f330",
          "transactionIndex": "0x6",
          "logIndex": "0x10",
          "removed": false
        }
      ],
      "logsBloom": "0x00000000000000000000000000000000000000000000000000000000000000000004000000000000000000000000000000000000000000000000400000000000000000000000000000000000000000000000000000800000000000000000000000000000000000000000000000000000000000000000000000000000000000000000000000000000000000000000000000000000000000000000000000080000000000000000000000000000000000000000000000000000000000000000000000000000000000000000000002000000000000000000000000000000000000000000000000000000000040000000000000000000000000000000000000000000",
      "type": "0x2",
      "transactionHash": "0x8ec1a5339830bd3101202355e3868de9881d8471b4f8a1557b467d5399e5f330",
      "transactionIndex": "0x6",
      "blockHash": "0x21df3e7bae10909873d3eaf1081f40060109d96a97d7bb878aa616642da1ce10",
      "blockNumber": "0xb2e9646",
      "gasUsed": "0x1455e",
      "effectiveGasPrice": "0x5f5e100",
      "from": "0xa5ea1cb1033f5d3bd207bf6a2a2504cf1c3e9f42",
      "to": "0xb63c53cab400622bb1e6ad65e098e7fac7ca7e9d",
      "contractAddress": null,
      "gasUsedForL1": "0x2ea",
      "l1BlockNumber": "0x8a4745",
      "timeboosted": false
    }
  ],
  "libraries": [],
  "pending": [],
  "returns": {},
  "timestamp": 1756143348563,
  "chain": 421614,
  "commit": "c1646ab"
}