{
  "transactions": [
    {
      "hash": "0x404f92f0d1a80e5f8a6fec400a8cc703b7351714f6864043ab6c79db29f08e60",
      "transactionType": "CALL",
      "contractName": null,
      "contractAddress": "0x6edce65403992e310a62460808c4b910d972f10f",
      "function": "setSendLibrary(address,uint32,address)",
      "arguments": [
        "0xD7bFfbF7C7354934f3cbca622C9F90124Cbc22AF",
        "40245",
        "0xC1868e054425D378095A003EcbA3823a5D0135C9"
      ],
      "transaction": {
        "from": "0xa5ea1cb1033f5d3bd207bf6a2a2504cf1c3e9f42",
        "to": "0x6edce65403992e310a62460808c4b910d972f10f",
        "gas": "0x149cd",
        "value": "0x0",
        "input": "0x9535ff30000000000000000000000000d7bffbf7c7354934f3cbca622c9f90124cbc22af0000000000000000000000000000000000000000000000000000000000009d35000000000000000000000000c1868e054425d378095a003ecba3823a5d0135c9",
        "nonce": "0x1b1",
        "chainId": "0x14a34"
      },
      "additionalContracts": [],
      "isFixedGasLimit": false
    },
    {
      "hash": "0x117f51b6e51caa783fd9cc1db94a75b007695b7d9728aac7681052eb0b8f3868",
      "transactionType": "CALL",
      "contractName": null,
      "contractAddress": "0x6edce65403992e310a62460808c4b910d972f10f",
      "function": "setReceiveLibrary(address,uint32,address,uint256)",
      "arguments": [
        "0xD7bFfbF7C7354934f3cbca622C9F90124Cbc22AF",
        "40231",
        "0x12523de19dc41c91F7d2093E0CFbB76b17012C8d",
        "0"
      ],
      "transaction": {
        "from": "0xa5ea1cb1033f5d3bd207bf6a2a2504cf1c3e9f42",
        "to": "0x6edce65403992e310a62460808c4b910d972f10f",
        "gas": "0x17001",
        "value": "0x0",
        "input": "0x6a14d715000000000000000000000000d7bffbf7c7354934f3cbca622c9f90124cbc22af0000000000000000000000000000000000000000000000000000000000009d2700000000000000000000000012523de19dc41c91f7d2093e0cfbb76b17012c8d0000000000000000000000000000000000000000000000000000000000000000",
        "nonce": "0x1b2",
        "chainId": "0x14a34"
      },
      "additionalContracts": [],
      "isFixedGasLimit": false
    }
  ],
  "receipts": [
    {
      "status": "0x1",
      "cumulativeGasUsed": "0x2968a3",
      "logs": [
        {
          "address": "0x6edce65403992e310a62460808c4b910d972f10f",
          "topics": [
            "0x4cff966ebee29a156dcb34cf72c1d06231fb1777f6bdf6e8089819232f002b1c"
          ],
          "data": "0x000000000000000000000000d7bffbf7c7354934f3cbca622c9f90124cbc22af0000000000000000000000000000000000000000000000000000000000009d35000000000000000000000000c1868e054425d378095a003ecba3823a5d0135c9",
          "blockHash": "0x5fa694bf1324b3fac6998fc95b243e02f200d3f0d2ae5ddc44aff642d5e9ee0d",
          "blockNumber": "0x1cc75f3",
          "blockTimestamp": "0x68ac4ac6",
          "transactionHash": "0x404f92f0d1a80e5f8a6fec400a8cc703b7351714f6864043ab6c79db29f08e60",
          "transactionIndex": "0x10",
          "logIndex": "0x3e",
          "removed": false
        }
      ],
      "logsBloom": "0x00000000000000000000000000000000000200000000000000000000000000000000000000000000200000000000000000000000000000000000000001000000000000000000000000000000000000000000000000000000000000000000000000000000000000000200000000000000000000000000000000000000000000000000000000000020000000000000000000000000000000000000000000000000000000000000000000000000000000000000000000000000000000000000000000000000000000000000000000000000000000000000000000000000000000000040000000000000000000000000000000000000000000000000000000000000",
      "type": "0x2",
      "transactionHash": "0x404f92f0d1a80e5f8a6fec400a8cc703b7351714f6864043ab6c79db29f08e60",
      "transactionIndex": "0x10",
      "blockHash": "0x5fa694bf1324b3fac6998fc95b243e02f200d3f0d2ae5ddc44aff642d5e9ee0d",
      "blockNumber": "0x1cc75f3",
      "gasUsed": "0xe182",
      "effectiveGasPrice": "0xf4286",
      "from": "0xa5ea1cb1033f5d3bd207bf6a2a2504cf1c3e9f42",
      "to": "0x6edce65403992e310a62460808c4b910d972f10f",
      "contractAddress": null,
      "l1BaseFeeScalar": "0x44d",
      "l1BlobBaseFee": "0x4f91b",
      "l1BlobBaseFeeScalar": "0xa118b",
      "l1Fee": "0x6209247b",
      "l1GasPrice": "0x32cf190e",
      "l1GasUsed": "0x6bf"
    },
    {
      "status": "0x1",
      "cumulativeGasUsed": "0x2a6444",
      "logs": [
        {
          "address": "0x6edce65403992e310a62460808c4b910d972f10f",
          "topics": [
            "0xcd6f92f5ac6185a5acfa02c92090746cec64d777269cbcd0ed031e396657a1c2"
          ],
          "data": "0x000000000000000000000000d7bffbf7c7354934f3cbca622c9f90124cbc22af0000000000000000000000000000000000000000000000000000000000009d2700000000000000000000000012523de19dc41c91f7d2093e0cfbb76b17012c8d",
          "blockHash": "0x5fa694bf1324b3fac6998fc95b243e02f200d3f0d2ae5ddc44aff642d5e9ee0d",
          "blockNumber": "0x1cc75f3",
          "blockTimestamp": "0x68ac4ac6",
          "transactionHash": "0x117f51b6e51caa783fd9cc1db94a75b007695b7d9728aac7681052eb0b8f3868",
          "transactionIndex": "0x11",
          "logIndex": "0x3f",
          "removed": false
        },
        {
          "address": "0x6edce65403992e310a62460808c4b910d972f10f",
          "topics": [
            "0x4e0a5bbfa0c11a64effb1ada324b5437a17272e1aed9320398715ef71bb20928"
          ],
          "data": "0x000000000000000000000000d7bffbf7c7354934f3cbca622c9f90124cbc22af0000000000000000000000000000000000000000000000000000000000009d2700000000000000000000000000000000000000000000000000000000000000000000000000000000000000000000000000000000000000000000000000000000",
          "blockHash": "0x5fa694bf1324b3fac6998fc95b243e02f200d3f0d2ae5ddc44aff642d5e9ee0d",
          "blockNumber": "0x1cc75f3",
          "blockTimestamp": "0x68ac4ac6",
          "transactionHash": "0x117f51b6e51caa783fd9cc1db94a75b007695b7d9728aac7681052eb0b8f3868",
          "transactionIndex": "0x11",
          "logIndex": "0x40",
          "removed": false
        }
      ],
      "logsBloom": "0x00000000000000000000020800000000000000000000000000000000000000020400000000000000200000000000000000000000000000000000000000000000000000000000000000000000000000000000000000800000000000000000000000000000000000000200000000000000000000000000000000000000000000100000000000000020000000000000000000000000000000000000000000000000000000000000000000000000000000000000000000000000000000000000000000000000000000000000000000000000000000000000000000000000000000000000000000000000000000000000000000000000000000000000000000000000",
      "type": "0x2",
      "transactionHash": "0x117f51b6e51caa783fd9cc1db94a75b007695b7d9728aac7681052eb0b8f3868",
      "transactionIndex": "0x11",
      "blockHash": "0x5fa694bf1324b3fac6998fc95b243e02f200d3f0d2ae5ddc44aff642d5e9ee0d",
      "blockNumber": "0x1cc75f3",
      "gasUsed": "0xfba1",
      "effectiveGasPrice": "0xf4286",
      "from": "0xa5ea1cb1033f5d3bd207bf6a2a2504cf1c3e9f42",
      "to": "0x6edce65403992e310a62460808c4b910d972f10f",
      "contractAddress": null,
      "l1BaseFeeScalar": "0x44d",
      "l1BlobBaseFee": "0x4f91b",
      "l1BlobBaseFeeScalar": "0xa118b",
      "l1Fee": "0x675a0bb4",
      "l1GasPrice": "0x32cf190e",
      "l1GasUsed": "0x71d"
    }
  ],
  "libraries": [],
  "pending": [],
  "returns": {},
  "timestamp": 1756121797969,
  "chain": 84532,
  "commit": "c1646ab"
}