{
  "transactions": [
    {
      "hash": "0xe0671c8ac48b816dfbdbace0747e518bbfa79973c5801afd552a01eea3acf9a3",
      "transactionType": "CALL",
      "contractName": null,
      "contractAddress": "0x6edce65403992e310a62460808c4b910d972f10f",
      "function": "setSendLibrary(address,uint32,address)",
      "arguments": [
        "0x50df5e25AB60e150f753B9444D160a80f0279559",
        "40231",
        "0xC1868e054425D378095A003EcbA3823a5D0135C9"
      ],
      "transaction": {
        "from": "0xa5ea1cb1033f5d3bd207bf6a2a2504cf1c3e9f42",
        "to": "0x6edce65403992e310a62460808c4b910d972f10f",
        "gas": "0x149cd",
        "value": "0x0",
        "input": "0x9535ff3000000000000000000000000050df5e25ab60e150f753b9444d160a80f02795590000000000000000000000000000000000000000000000000000000000009d27000000000000000000000000c1868e054425d378095a003ecba3823a5d0135c9",
        "nonce": "0x1cb",
        "chainId": "0x14a34"
      },
      "additionalContracts": [],
      "isFixedGasLimit": false
    },
    {
      "hash": "0xf3270251d075a5a12dcae6f1072fd1dd7b86fef2cfcc8e3485466516e9560be4",
      "transactionType": "CALL",
      "contractName": null,
      "contractAddress": "0x6edce65403992e310a62460808c4b910d972f10f",
      "function": "setReceiveLibrary(address,uint32,address,uint256)",
      "arguments": [
        "0x50df5e25AB60e150f753B9444D160a80f0279559",
        "40245",
        "0x12523de19dc41c91F7d2093E0CFbB76b17012C8d",
        "0"
      ],
      "transaction": {
        "from": "0xa5ea1cb1033f5d3bd207bf6a2a2504cf1c3e9f42",
        "to": "0x6edce65403992e310a62460808c4b910d972f10f",
        "gas": "0x17001",
        "value": "0x0",
        "input": "0x6a14d71500000000000000000000000050df5e25ab60e150f753b9444d160a80f02795590000000000000000000000000000000000000000000000000000000000009d3500000000000000000000000012523de19dc41c91f7d2093e0cfbb76b17012c8d0000000000000000000000000000000000000000000000000000000000000000",
        "nonce": "0x1cc",
        "chainId": "0x14a34"
      },
      "additionalContracts": [],
      "isFixedGasLimit": false
    }
  ],
  "receipts": [
    {
      "status": "0x1",
      "cumulativeGasUsed": "0x1049d2",
      "logs": [
        {
          "address": "0x6edce65403992e310a62460808c4b910d972f10f",
          "topics": [
            "0x4cff966ebee29a156dcb34cf72c1d06231fb1777f6bdf6e8089819232f002b1c"
          ],
          "data": "0x00000000000000000000000050df5e25ab60e150f753b9444d160a80f02795590000000000000000000000000000000000000000000000000000000000009d27000000000000000000000000c1868e054425d378095a003ecba3823a5d0135c9",
          "blockHash": "0x0e31d96fe51e95ed067c8670515ddcd01953ec717b9d2f8162142d356d38ecc5",
          "blockNumber": "0x1cc9a34",
          "blockTimestamp": "0x68ac9348",
          "transactionHash": "0xe0671c8ac48b816dfbdbace0747e518bbfa79973c5801afd552a01eea3acf9a3",
          "transactionIndex": "0x9",
          "logIndex": "0x19",
          "removed": false
        }
      ],
      "logsBloom": "0x00000000000000000000000000000000000200000000000000000000000000000000000000000000200000000000000000000000000000000000000001000000000000000000000000000000000000000000000000000000000000000000000000000000000000000200000000000000000000000000000000000000000000000000000000000020000000000000000000000000000000000000000000000000000000000000000000000000000000000000000000000000000000000000000000000000000000000000000000000000000000000000000000000000000000000040000000000000000000000000000000000000000000000000000000000000",
      "type": "0x2",
      "transactionHash": "0xe0671c8ac48b816dfbdbace0747e518bbfa79973c5801afd552a01eea3acf9a3",
      "transactionIndex": "0x9",
      "blockHash": "0x0e31d96fe51e95ed067c8670515ddcd01953ec717b9d2f8162142d356d38ecc5",
      "blockNumber": "0x1cc9a34",
      "gasUsed": "0xe182",
      "effectiveGasPrice": "0xf4298",
      "from": "0xa5ea1cb1033f5d3bd207bf6a2a2504cf1c3e9f42",
      "to": "0x6edce65403992e310a62460808c4b910d972f10f",
      "contractAddress": null,
      "l1BaseFeeScalar": "0x44d",
      "l1BlobBaseFee": "0xe9917b6",
      "l1BlobBaseFeeScalar": "0xa118b",
      "l1Fee": "0x41d53d930",
      "l1GasPrice": "0x6ebd78d",
      "l1GasUsed": "0x6bf"
    },
    {
      "status": "0x1",
      "cumulativeGasUsed": "0x114573",
      "logs": [
        {
          "address": "0x6edce65403992e310a62460808c4b910d972f10f",
          "topics": [
            "0xcd6f92f5ac6185a5acfa02c92090746cec64d777269cbcd0ed031e396657a1c2"
          ],
          "data": "0x00000000000000000000000050df5e25ab60e150f753b9444d160a80f02795590000000000000000000000000000000000000000000000000000000000009d3500000000000000000000000012523de19dc41c91f7d2093e0cfbb76b17012c8d",
          "blockHash": "0x0e31d96fe51e95ed067c8670515ddcd01953ec717b9d2f8162142d356d38ecc5",
          "blockNumber": "0x1cc9a34",
          "blockTimestamp": "0x68ac9348",
          "transactionHash": "0xf3270251d075a5a12dcae6f1072fd1dd7b86fef2cfcc8e3485466516e9560be4",
          "transactionIndex": "0xa",
          "logIndex": "0x1a",
          "removed": false
        },
        {
          "address": "0x6edce65403992e310a62460808c4b910d972f10f",
          "topics": [
            "0x4e0a5bbfa0c11a64effb1ada324b5437a17272e1aed9320398715ef71bb20928"
          ],
          "data": "0x00000000000000000000000050df5e25ab60e150f753b9444d160a80f02795590000000000000000000000000000000000000000000000000000000000009d3500000000000000000000000000000000000000000000000000000000000000000000000000000000000000000000000000000000000000000000000000000000",
          "blockHash": "0x0e31d96fe51e95ed067c8670515ddcd01953ec717b9d2f8162142d356d38ecc5",
          "blockNumber": "0x1cc9a34",
          "blockTimestamp": "0x68ac9348",
          "transactionHash": "0xf3270251d075a5a12dcae6f1072fd1dd7b86fef2cfcc8e3485466516e9560be4",
          "transactionIndex": "0xa",
          "logIndex": "0x1b",
          "removed": false
        }
      ],
      "logsBloom": "0x00000000000000000000020800000000000000000000000000000000000000020400000000000000200000000000000000000000000000000000000000000000000000000000000000000000000000000000000000800000000000000000000000000000000000000200000000000000000000000000000000000000000000100000000000000020000000000000000000000000000000000000000000000000000000000000000000000000000000000000000000000000000000000000000000000000000000000000000000000000000000000000000000000000000000000000000000000000000000000000000000000000000000000000000000000000",
      "type": "0x2",
      "transactionHash": "0xf3270251d075a5a12dcae6f1072fd1dd7b86fef2cfcc8e3485466516e9560be4",
      "transactionIndex": "0xa",
      "blockHash": "0x0e31d96fe51e95ed067c8670515ddcd01953ec717b9d2f8162142d356d38ecc5",
      "blockNumber": "0x1cc9a34",
      "gasUsed": "0xfba1",
      "effectiveGasPrice": "0xf4298",
      "from": "0xa5ea1cb1033f5d3bd207bf6a2a2504cf1c3e9f42",
      "to": "0x6edce65403992e310a62460808c4b910d972f10f",
      "contractAddress": null,
      "l1BaseFeeScalar": "0x44d",
      "l1BlobBaseFee": "0xe9917b6",
      "l1BlobBaseFeeScalar": "0xa118b",
      "l1Fee": "0x446201fca",
      "l1GasPrice": "0x6ebd78d",
      "l1GasUsed": "0x702"
    }
  ],
  "libraries": [],
  "pending": [],
  "returns": {},
  "timestamp": 1756140359489,
  "chain": 84532,
  "commit": "c1646ab"
}