{
  "transactions": [
    {
      "hash": "0x4824d0dc1692cf4fa35af18e17b8ed52b1c6d7a1fc6c0e323d6505b92813025c",
      "transactionType": "CALL",
      "contractName": null,
      "contractAddress": "0x6edce65403992e310a62460808c4b910d972f10f",
      "function": "setConfig(address,address,(uint32,uint32,bytes)[])",
      "arguments": [
        "0xbdAD7A89359146131C4Db13782394b17e97eDA0C",
        "0x75Db67CDab2824970131D5aa9CECfC9F69c69636",
        "[(40231, 2, 0x0000000000000000000000000000000000000000000000000000000000000020000000000000000000000000000000000000000000000000000000000000000f000000000000000000000000000000000000000000000000000000000000000200000000000000000000000000000000000000000000000000000000000000ff000000000000000000000000000000000000000000000000000000000000000000000000000000000000000000000000000000000000000000000000000000c000000000000000000000000000000000000000000000000000000000000001200000000000000000000000000000000000000000000000000000000000000002000000000000000000000000df04abb599c7b37dd5ffc0f8e94f6898120874ef000000000000000000000000e1a12515f9ab2764b887bf60b923ca494ebbb2d60000000000000000000000000000000000000000000000000000000000000000)]"
      ],
      "transaction": {
        "from": "0xa5ea1cb1033f5d3bd207bf6a2a2504cf1c3e9f42",
        "to": "0x6edce65403992e310a62460808c4b910d972f10f",
        "gas": "0x2d39b",
        "value": "0x0",
        "input": "0x6dbd9f90000000000000000000000000bdad7a89359146131c4db13782394b17e97eda0c00000000000000000000000075db67cdab2824970131d5aa9cecfc9f69c696360000000000000000000000000000000000000000000000000000000000000060000000000000000000000000000000000000000000000000000000000000000100000000000000000000000000000000000000000000000000000000000000200000000000000000000000000000000000000000000000000000000000009d270000000000000000000000000000000000000000000000000000000000000002000000000000000000000000000000000000000000000000000000000000006000000000000000000000000000000000000000000000000000000000000001600000000000000000000000000000000000000000000000000000000000000020000000000000000000000000000000000000000000000000000000000000000f000000000000000000000000000000000000000000000000000000000000000200000000000000000000000000000000000000000000000000000000000000ff000000000000000000000000000000000000000000000000000000000000000000000000000000000000000000000000000000000000000000000000000000c000000000000000000000000000000000000000000000000000000000000001200000000000000000000000000000000000000000000000000000000000000002000000000000000000000000df04abb599c7b37dd5ffc0f8e94f6898120874ef000000000000000000000000e1a12515f9ab2764b887bf60b923ca494ebbb2d60000000000000000000000000000000000000000000000000000000000000000",
        "nonce": "0x38f",
        "chainId": "0x66eee"
      },
      "additionalContracts": [],
      "isFixedGasLimit": false
    }
  ],
  "receipts": [
    {
      "status": "0x1",
      "cumulativeGasUsed": "0xc5c20",
      "logs": [
        {
          "address": "0x75db67cdab2824970131d5aa9cecfc9f69c69636",
          "topics": [
            "0x82118522aa536ac0e96cc5c689407ae42b89d592aa133890a01f1509842f5081"
          ],
          "data": "0x000000000000000000000000bdad7a89359146131c4db13782394b17e97eda0c0000000000000000000000000000000000000000000000000000000000009d270000000000000000000000000000000000000000000000000000000000000060000000000000000000000000000000000000000000000000000000000000000f000000000000000000000000000000000000000000000000000000000000000200000000000000000000000000000000000000000000000000000000000000ff000000000000000000000000000000000000000000000000000000000000000000000000000000000000000000000000000000000000000000000000000000c000000000000000000000000000000000000000000000000000000000000001200000000000000000000000000000000000000000000000000000000000000002000000000000000000000000df04abb599c7b37dd5ffc0f8e94f6898120874ef000000000000000000000000e1a12515f9ab2764b887bf60b923ca494ebbb2d60000000000000000000000000000000000000000000000000000000000000000",
          "blockHash": "0x591b394ae234cb3878964c323e3bee5674018c71178d9c7a4113025edab59081",
          "blockNumber": "0xb2d5850",
          "transactionHash": "0x4824d0dc1692cf4fa35af18e17b8ed52b1c6d7a1fc6c0e323d6505b92813025c",
          "transactionIndex": "0x8",
          "logIndex": "0x13",
          "removed": false
        }
      ],
      "logsBloom": "0x00000000000000000000000000000000000000000000000000000000000000000000000000000000000000000000000000000000000000000000000000000000000000000000000000000000000000000000000000000000002000000000000000000000000000000000000000000000000000000000000000000000000000000000000000000000000000000000000000000000000000000000000000000000000000000000000000000002000000000000000000000000000000000000000000000000000000000000000000000000020000000000000000000040000000000000000000000000000000000000000000000000000000000000000000020010",
      "type": "0x2",
      "transactionHash": "0x4824d0dc1692cf4fa35af18e17b8ed52b1c6d7a1fc6c0e323d6505b92813025c",
      "transactionIndex": "0x8",
      "blockHash": "0x591b394ae234cb3878964c323e3bee5674018c71178d9c7a4113025edab59081",
      "blockNumber": "0xb2d5850",
      "gasUsed": "0x222f5",
      "effectiveGasPrice": "0x5f5e100",
      "from": "0xa5ea1cb1033f5d3bd207bf6a2a2504cf1c3e9f42",
      "to": "0x6edce65403992e310a62460808c4b910d972f10f",
      "contractAddress": null,
      "gasUsedForL1": "0x472",
      "l1BlockNumber": "0x8a405c",
      "timeboosted": false
    }
  ],
  "libraries": [],
  "pending": [],
  "returns": {},
  "timestamp": 1756121928071,
  "chain": 421614,
  "commit": "c1646ab"
}