{
  "transactions": [
    {
      "hash": "0xed6fcd68e7b5bf57f0b2352da2fd19e9732c5fce43d2538ce3ce38da092e639e",
      "transactionType": "CALL",
      "contractName": null,
      "contractAddress": "0x6edce65403992e310a62460808c4b910d972f10f",
      "function": "setConfig(address,address,(uint32,uint32,bytes)[])",
      "arguments": [
        "0xb63c53cab400622Bb1E6aD65E098E7faC7CA7e9d",
        "0x75Db67CDab2824970131D5aa9CECfC9F69c69636",
        "[(40231, 2, 0x0000000000000000000000000000000000000000000000000000000000000020000000000000000000000000000000000000000000000000000000000000000f000000000000000000000000000000000000000000000000000000000000000200000000000000000000000000000000000000000000000000000000000000ff000000000000000000000000000000000000000000000000000000000000000000000000000000000000000000000000000000000000000000000000000000c000000000000000000000000000000000000000000000000000000000000001200000000000000000000000000000000000000000000000000000000000000002000000000000000000000000500e6064cb1fe164974cc0a4fe9151928c870bbe00000000000000000000000053f488e93b4f1b60e8e83aa374dbe1780a1ee8a80000000000000000000000000000000000000000000000000000000000000000)]"
      ],
      "transaction": {
        "from": "0xa5ea1cb1033f5d3bd207bf6a2a2504cf1c3e9f42",
        "to": "0x6edce65403992e310a62460808c4b910d972f10f",
        "gas": "0x2d19a",
        "value": "0x0",
        "input": "0x6dbd9f90000000000000000000000000b63c53cab400622bb1e6ad65e098e7fac7ca7e9d00000000000000000000000075db67cdab2824970131d5aa9cecfc9f69c696360000000000000000000000000000000000000000000000000000000000000060000000000000000000000000000000000000000000000000000000000000000100000000000000000000000000000000000000000000000000000000000000200000000000000000000000000000000000000000000000000000000000009d270000000000000000000000000000000000000000000000000000000000000002000000000000000000000000000000000000000000000000000000000000006000000000000000000000000000000000000000000000000000000000000001600000000000000000000000000000000000000000000000000000000000000020000000000000000000000000000000000000000000000000000000000000000f000000000000000000000000000000000000000000000000000000000000000200000000000000000000000000000000000000000000000000000000000000ff000000000000000000000000000000000000000000000000000000000000000000000000000000000000000000000000000000000000000000000000000000c000000000000000000000000000000000000000000000000000000000000001200000000000000000000000000000000000000000000000000000000000000002000000000000000000000000500e6064cb1fe164974cc0a4fe9151928c870bbe00000000000000000000000053f488e93b4f1b60e8e83aa374dbe1780a1ee8a80000000000000000000000000000000000000000000000000000000000000000",
        "nonce": "0x3a3",
        "chainId": "0x66eee"
      },
      "additionalContracts": [],
      "isFixedGasLimit": false
    }
  ],
  "receipts": [
    {
      "status": "0x1",
      "cumulativeGasUsed": "0x560ad",
      "logs": [
        {
          "address": "0x75db67cdab2824970131d5aa9cecfc9f69c69636",
          "topics": [
            "0x82118522aa536ac0e96cc5c689407ae42b89d592aa133890a01f1509842f5081"
          ],
          "data": "0x000000000000000000000000b63c53cab400622bb1e6ad65e098e7fac7ca7e9d0000000000000000000000000000000000000000000000000000000000009d270000000000000000000000000000000000000000000000000000000000000060000000000000000000000000000000000000000000000000000000000000000f000000000000000000000000000000000000000000000000000000000000000200000000000000000000000000000000000000000000000000000000000000ff000000000000000000000000000000000000000000000000000000000000000000000000000000000000000000000000000000000000000000000000000000c000000000000000000000000000000000000000000000000000000000000001200000000000000000000000000000000000000000000000000000000000000002000000000000000000000000500e6064cb1fe164974cc0a4fe9151928c870bbe00000000000000000000000053f488e93b4f1b60e8e83aa374dbe1780a1ee8a80000000000000000000000000000000000000000000000000000000000000000",
          "blockHash": "0x24504e8ed9a0522eeaa05490d60b6fb5f6ff668e0620dc6f8385e390eecd0834",
          "blockNumber": "0xb2e9165",
          "transactionHash": "0xed6fcd68e7b5bf57f0b2352da2fd19e9732c5fce43d2538ce3ce38da092e639e",
          "transactionIndex": "0x3",
          "logIndex": "0x5",
          "removed": false
        }
      ],
      "logsBloom": "0x00000000000000000000000000000000000000000000000000000000000000000000000000000000000000000000000000000000000000000000000000000000000000000000000000000000000000000000000000000000002000000000000000000000000000000000000000000000000000000000000000000000000000000000000000000000000000000000000000000000000000000000000000000000000000000000000000000002000000000000000000000000000000000000000000000000000000000000000000000000020000000000000000000040000000000000000000000000000000000000000000000000000000000000000000020010",
      "type": "0x2",
      "transactionHash": "0xed6fcd68e7b5bf57f0b2352da2fd19e9732c5fce43d2538ce3ce38da092e639e",
      "transactionIndex": "0x3",
      "blockHash": "0x24504e8ed9a0522eeaa05490d60b6fb5f6ff668e0620dc6f8385e390eecd0834",
      "blockNumber": "0xb2e9165",
      "gasUsed": "0x221b0",
      "effectiveGasPrice": "0x5f5e100",
      "from": "0xa5ea1cb1033f5d3bd207bf6a2a2504cf1c3e9f42",
      "to": "0x6edce65403992e310a62460808c4b910d972f10f",
      "contractAddress": null,
      "gasUsedForL1": "0x339",
      "l1BlockNumber": "0x8a472b",
      "timeboosted": false
    }
  ],
  "libraries": [],
  "pending": [],
  "returns": {},
  "timestamp": 1756143028184,
  "chain": 421614,
  "commit": "c1646ab"
}