{
  "transactions": [
    {
      "hash": "0x76452aac1c8c56f5c49b4c9c0e0d845a6974be461dd0f3ccf3e17cd51d6a9b47",
      "transactionType": "CALL",
      "contractName": null,
      "contractAddress": "0x6edce65403992e310a62460808c4b910d972f10f",
      "function": "setConfig(address,address,(uint32,uint32,bytes)[])",
      "arguments": [
        "0xb63c53cab400622Bb1E6aD65E098E7faC7CA7e9d",
        "0x4f7cd4DA19ABB31b0eC98b9066B9e857B1bf9C0E",
        "[(40231, 1, 0x00000000000000000000000000000000000000000000000000000000000027100000000000000000000000008a3d588d9f6ac041476b094f97ff94ec30169d3d), (40231, 2, 0x0000000000000000000000000000000000000000000000000000000000000020000000000000000000000000000000000000000000000000000000000000000f000000000000000000000000000000000000000000000000000000000000000200000000000000000000000000000000000000000000000000000000000000ff000000000000000000000000000000000000000000000000000000000000000000000000000000000000000000000000000000000000000000000000000000c000000000000000000000000000000000000000000000000000000000000001200000000000000000000000000000000000000000000000000000000000000002000000000000000000000000df04abb599c7b37dd5ffc0f8e94f6898120874ef000000000000000000000000e1a12515f9ab2764b887bf60b923ca494ebbb2d60000000000000000000000000000000000000000000000000000000000000000)]"
      ],
      "transaction": {
        "from": "0xa5ea1cb1033f5d3bd207bf6a2a2504cf1c3e9f42",
        "to": "0x6edce65403992e310a62460808c4b910d972f10f",
        "gas": "0x35dda",
        "value": "0x0",
        "input": "0x6dbd9f90000000000000000000000000b63c53cab400622bb1e6ad65e098e7fac7ca7e9d0000000000000000000000004f7cd4da19abb31b0ec98b9066b9e857b1bf9c0e00000000000000000000000000000000000000000000000000000000000000600000000000000000000000000000000000000000000000000000000000000002000000000000000000000000000000000000000000000000000000000000004000000000000000000000000000000000000000000000000000000000000001000000000000000000000000000000000000000000000000000000000000009d2700000000000000000000000000000000000000000000000000000000000000010000000000000000000000000000000000000000000000000000000000000060000000000000000000000000000000000000000000000000000000000000004000000000000000000000000000000000000000000000000000000000000027100000000000000000000000008a3d588d9f6ac041476b094f97ff94ec30169d3d0000000000000000000000000000000000000000000000000000000000009d270000000000000000000000000000000000000000000000000000000000000002000000000000000000000000000000000000000000000000000000000000006000000000000000000000000000000000000000000000000000000000000001600000000000000000000000000000000000000000000000000000000000000020000000000000000000000000000000000000000000000000000000000000000f000000000000000000000000000000000000000000000000000000000000000200000000000000000000000000000000000000000000000000000000000000ff000000000000000000000000000000000000000000000000000000000000000000000000000000000000000000000000000000000000000000000000000000c000000000000000000000000000000000000000000000000000000000000001200000000000000000000000000000000000000000000000000000000000000002000000000000000000000000df04abb599c7b37dd5ffc0f8e94f6898120874ef000000000000000000000000e1a12515f9ab2764b887bf60b923ca494ebbb2d60000000000000000000000000000000000000000000000000000000000000000",
        "nonce": "0x39f",
        "chainId": "0x66eee"
      },
      "additionalContracts": [],
      "isFixedGasLimit": false
    }
  ],
  "receipts": [
    {
      "status": "0x1",
      "cumulativeGasUsed": "0x163f50",
      "logs": [
        {
          "address": "0x4f7cd4da19abb31b0ec98b9066b9e857b1bf9c0e",
          "topics": [
            "0x779cb2dd9d2bb1be1737d05435d744facbfb84a2a4912e21379d39beddcdc805"
          ],
          "data": "0x000000000000000000000000b63c53cab400622bb1e6ad65e098e7fac7ca7e9d0000000000000000000000000000000000000000000000000000000000009d2700000000000000000000000000000000000000000000000000000000000027100000000000000000000000008a3d588d9f6ac041476b094f97ff94ec30169d3d",
          "blockHash": "0x0a45193d09558e46049665383bef5056ecbd883b135a48e6b146fdf03b47e06a",
          "blockNumber": "0xb2e6b10",
          "transactionHash": "0x76452aac1c8c56f5c49b4c9c0e0d845a6974be461dd0f3ccf3e17cd51d6a9b47",
          "transactionIndex": "0x5",
          "logIndex": "0xb",
          "removed": false
        },
        {
          "address": "0x4f7cd4da19abb31b0ec98b9066b9e857b1bf9c0e",
          "topics": [
            "0x82118522aa536ac0e96cc5c689407ae42b89d592aa133890a01f1509842f5081"
          ],
          "data": "0x000000000000000000000000b63c53cab400622bb1e6ad65e098e7fac7ca7e9d0000000000000000000000000000000000000000000000000000000000009d270000000000000000000000000000000000000000000000000000000000000060000000000000000000000000000000000000000000000000000000000000000f000000000000000000000000000000000000000000000000000000000000000200000000000000000000000000000000000000000000000000000000000000ff000000000000000000000000000000000000000000000000000000000000000000000000000000000000000000000000000000000000000000000000000000c000000000000000000000000000000000000000000000000000000000000001200000000000000000000000000000000000000000000000000000000000000002000000000000000000000000df04abb599c7b37dd5ffc0f8e94f6898120874ef000000000000000000000000e1a12515f9ab2764b887bf60b923ca494ebbb2d60000000000000000000000000000000000000000000000000000000000000000",
          "blockHash": "0x0a45193d09558e46049665383bef5056ecbd883b135a48e6b146fdf03b47e06a",
          "blockNumber": "0xb2e6b10",
          "transactionHash": "0x76452aac1c8c56f5c49b4c9c0e0d845a6974be461dd0f3ccf3e17cd51d6a9b47",
          "transactionIndex": "0x5",
          "logIndex": "0xc",
          "removed": false
        }
      ],
      "logsBloom": "0x00000000000000000000000000000000000000000000000000000000000000000000000000000000000000000000000000000000008000000000000000000000000000000000000000000040000000000000000000000000002000000000000000000000000000000000000000000000000000000000000000000000000000000000000000000000000000000000000000000000000000010000000000000000000000000000000000002002000000000000000000000000000000000000000200000000000000000000000000000000000000000000000000000000000000000008000000000000000000000000000000000000000000000000000000000010",
      "type": "0x2",
      "transactionHash": "0x76452aac1c8c56f5c49b4c9c0e0d845a6974be461dd0f3ccf3e17cd51d6a9b47",
      "transactionIndex": "0x5",
      "blockHash": "0x0a45193d09558e46049665383bef5056ecbd883b135a48e6b146fdf03b47e06a",
      "blockNumber": "0xb2e6b10",
      "gasUsed": "0x28cff",
      "effectiveGasPrice": "0x5f5e100",
      "from": "0xa5ea1cb1033f5d3bd207bf6a2a2504cf1c3e9f42",
      "to": "0x6edce65403992e310a62460808c4b910d972f10f",
      "contractAddress": null,
      "gasUsedForL1": "0x169",
      "l1BlockNumber": "0x8a4656",
      "timeboosted": false
    }
  ],
  "libraries": [],
  "pending": [],
  "returns": {},
  "timestamp": 1756140441132,
  "chain": 421614,
  "commit": "c1646ab"
}