{
  "transactions": [
    {
      "hash": "0x4160e2f4fcb1e28c7448b1beed0c916d0d4428b2b2fe7d902a70a0724c7dec1a",
      "transactionType": "CALL",
      "contractName": null,
      "contractAddress": "0xd7bffbf7c7354934f3cbca622c9f90124cbc22af",
      "function": "setPeer(uint32,bytes32)",
      "arguments": [
        "40231",
        "0x000000000000000000000000bdad7a89359146131c4db13782394b17e97eda0c"
      ],
      "transaction": {
        "from": "0xa5ea1cb1033f5d3bd207bf6a2a2504cf1c3e9f42",
        "to": "0xd7bffbf7c7354934f3cbca622c9f90124cbc22af",
        "gas": "0x1042a",
        "value": "0x0",
        "input": "0x3400288b0000000000000000000000000000000000000000000000000000000000009d27000000000000000000000000bdad7a89359146131c4db13782394b17e97eda0c",
        "nonce": "0x1b4",
        "chainId": "0x14a34"
      },
      "additionalContracts": [],
      "isFixedGasLimit": false
    },
    {
      "hash": "0x2fae65bd8bc6bbf39c577591fc5b8dd15a3ad61e8968315e9e64270ceca70aea",
      "transactionType": "CALL",
      "contractName": null,
      "contractAddress": "0xd7bffbf7c7354934f3cbca622c9f90124cbc22af",
      "function": "setPeer(uint32,bytes32)",
      "arguments": [
        "40245",
        "0x000000000000000000000000d7bffbf7c7354934f3cbca622c9f90124cbc22af"
      ],
      "transaction": {
        "from": "0xa5ea1cb1033f5d3bd207bf6a2a2504cf1c3e9f42",
        "to": "0xd7bffbf7c7354934f3cbca622c9f90124cbc22af",
        "gas": "0x1042a",
        "value": "0x0",
        "input": "0x3400288b0000000000000000000000000000000000000000000000000000000000009d35000000000000000000000000d7bffbf7c7354934f3cbca622c9f90124cbc22af",
        "nonce": "0x1b5",
        "chainId": "0x14a34"
      },
      "additionalContracts": [],
      "isFixedGasLimit": false
    }
  ],
  "receipts": [
    {
      "status": "0x1",
      "cumulativeGasUsed": "0x5f93b2",
      "logs": [
        {
          "address": "0xd7bffbf7c7354934f3cbca622c9f90124cbc22af",
          "topics": [
            "0x238399d427b947898edb290f5ff0f9109849b1c3ba196a42e35f00c50a54b98b"
          ],
          "data": "0x0000000000000000000000000000000000000000000000000000000000009d27000000000000000000000000bdad7a89359146131c4db13782394b17e97eda0c",
          "blockHash": "0x8fddf07c6f1bd300e27b8c1efa61dbe77cfacbb63644158e135f94d507fb1199",
          "blockNumber": "0x1cc7655",
          "blockTimestamp": "0x68ac4b8a",
          "transactionHash": "0x4160e2f4fcb1e28c7448b1beed0c916d0d4428b2b2fe7d902a70a0724c7dec1a",
          "transactionIndex": "0x14",
          "logIndex": "0xbc",
          "removed": false
        }
      ],
      "logsBloom": "0x00000000000000000000000000000000000000000000000000000000000000000000200000000000000000000000000000000000000000000800000000000000000000000000000000000000000000000000000000000000000000000000000000000000000000000000000000000000000000000000000000000000000000000000000000000000000000000000000000000020000000000000000000000000000000000000000000000000000000000000000000000000000002000000000000000000004000000000000000000000000000000000000000040000000000000000000000000000000000000000000000000000000000000000000000000000",
      "type": "0x2",
      "transactionHash": "0x4160e2f4fcb1e28c7448b1beed0c916d0d4428b2b2fe7d902a70a0724c7dec1a",
      "transactionIndex": "0x14",
      "blockHash": "0x8fddf07c6f1bd300e27b8c1efa61dbe77cfacbb63644158e135f94d507fb1199",
      "blockNumber": "0x1cc7655",
      "gasUsed": "0xbc5c",
      "effectiveGasPrice": "0xf4289",
      "from": "0xa5ea1cb1033f5d3bd207bf6a2a2504cf1c3e9f42",
      "to": "0xd7bffbf7c7354934f3cbca622c9f90124cbc22af",
      "contractAddress": null,
      "l1BaseFeeScalar": "0x44d",
      "l1BlobBaseFee": "0x4f91b",
      "l1BlobBaseFeeScalar": "0xa118b",
      "l1Fee": "0xd1fd1312",
      "l1GasPrice": "0x7679c598",
      "l1GasUsed": "0x640"
    },
    {
      "status": "0x1",
      "cumulativeGasUsed": "0x60500e",
      "logs": [
        {
          "address": "0xd7bffbf7c7354934f3cbca622c9f90124cbc22af",
          "topics": [
            "0x238399d427b947898edb290f5ff0f9109849b1c3ba196a42e35f00c50a54b98b"
          ],
          "data": "0x0000000000000000000000000000000000000000000000000000000000009d35000000000000000000000000d7bffbf7c7354934f3cbca622c9f90124cbc22af",
          "blockHash": "0x8fddf07c6f1bd300e27b8c1efa61dbe77cfacbb63644158e135f94d507fb1199",
          "blockNumber": "0x1cc7655",
          "blockTimestamp": "0x68ac4b8a",
          "transactionHash": "0x2fae65bd8bc6bbf39c577591fc5b8dd15a3ad61e8968315e9e64270ceca70aea",
          "transactionIndex": "0x15",
          "logIndex": "0xbd",
          "removed": false
        }
      ],
      "logsBloom": "0x00000000000000000000000000000000000000000000000000000000000000000000200000000000000000000000000000000000000000000800000000000000000000000000000000000000000000000000000000000000000000000000000000000000000000000000000000000000000000000000000000000000000000000000000000000000000000000000000000000020000000000000000000000000000000000000000000000000000000000000000000000000000002000000000000000000004000000000000000000000000000000000000000040000000000000000000000000000000000000000000000000000000000000000000000000000",
      "type": "0x2",
      "transactionHash": "0x2fae65bd8bc6bbf39c577591fc5b8dd15a3ad61e8968315e9e64270ceca70aea",
      "transactionIndex": "0x15",
      "blockHash": "0x8fddf07c6f1bd300e27b8c1efa61dbe77cfacbb63644158e135f94d507fb1199",
      "blockNumber": "0x1cc7655",
      "gasUsed": "0xbc5c",
      "effectiveGasPrice": "0xf4289",
      "from": "0xa5ea1cb1033f5d3bd207bf6a2a2504cf1c3e9f42",
      "to": "0xd7bffbf7c7354934f3cbca622c9f90124cbc22af",
      "contractAddress": null,
      "l1BaseFeeScalar": "0x44d",
      "l1BlobBaseFee": "0x4f91b",
      "l1BlobBaseFeeScalar": "0xa118b",
      "l1Fee": "0xd1fd1312",
      "l1GasPrice": "0x7679c598",
      "l1GasUsed": "0x640"
    }
  ],
  "libraries": [],
  "pending": [],
  "returns": {},
  "timestamp": 1756121994184,
  "chain": 84532,
  "commit": "c1646ab"
}