{
  "transactions": [
    {
      "hash": "0x9a0f6257c6f6063c311e5e80763c4628c38a9356e96f8c83af8b1fd3d3b206ec",
      "transactionType": "CALL",
      "contractName": null,
      "contractAddress": "0x50df5e25ab60e150f753b9444d160a80f0279559",
      "function": "setPeer(uint32,bytes32)",
      "arguments": [
        "40245",
        "0x00000000000000000000000050df5e25ab60e150f753b9444d160a80f0279559"
      ],
      "transaction": {
        "from": "0xa5ea1cb1033f5d3bd207bf6a2a2504cf1c3e9f42",
        "to": "0x50df5e25ab60e150f753b9444d160a80f0279559",
        "gas": "0x1139a",
        "value": "0x0",
        "input": "0x3400288b0000000000000000000000000000000000000000000000000000000000009d3500000000000000000000000050df5e25ab60e150f753b9444d160a80f0279559",
        "nonce": "0x1cf",
        "chainId": "0x14a34"
      },
      "additionalContracts": [],
      "isFixedGasLimit": false
    },
    {
      "hash": "0x72c5ac35c75055f3d2578093277ba9814de6c67e9144ba4db050728fb84ae2d5",
      "transactionType": "CALL",
      "contractName": null,
      "contractAddress": "0x50df5e25ab60e150f753b9444d160a80f0279559",
      "function": "setPeer(uint32,bytes32)",
      "arguments": [
        "40231",
        "0x000000000000000000000000b63c53cab400622bb1e6ad65e098e7fac7ca7e9d"
      ],
      "transaction": {
        "from": "0xa5ea1cb1033f5d3bd207bf6a2a2504cf1c3e9f42",
        "to": "0x50df5e25ab60e150f753b9444d160a80f0279559",
        "gas": "0x1043a",
        "value": "0x0",
        "input": "0x3400288b0000000000000000000000000000000000000000000000000000000000009d27000000000000000000000000b63c53cab400622bb1e6ad65e098e7fac7ca7e9d",
        "nonce": "0x1d0",
        "chainId": "0x14a34"
      },
      "additionalContracts": [],
      "isFixedGasLimit": false
    }
  ],
  "receipts": [
    {
      "status": "0x1",
      "cumulativeGasUsed": "0x2a86fc",
      "logs": [
        {
          "address": "0x50df5e25ab60e150f753b9444d160a80f0279559",
          "topics": [
            "0x238399d427b947898edb290f5ff0f9109849b1c3ba196a42e35f00c50a54b98b"
          ],
          "data": "0x0000000000000000000000000000000000000000000000000000000000009d3500000000000000000000000050df5e25ab60e150f753b9444d160a80f0279559",
          "blockHash": "0x2e317c1bde2b402b85a348b2b85721af8634c764d206735370ef0a85514200e0",
          "blockNumber": "0x1cc9aa4",
          "blockTimestamp": "0x68ac9428",
          "transactionHash": "0x9a0f6257c6f6063c311e5e80763c4628c38a9356e96f8c83af8b1fd3d3b206ec",
          "transactionIndex": "0x10",
          "logIndex": "0x41",
          "removed": false
        }
      ],
      "logsBloom": "0x00000000000000000000000000000000000000000000000000000000000000000010000000000080000000000000000000000000000000000800000000000004000000000000000000000000000000000000000000000000000000000000000000000000000000000000000000000000000000000000000000000000000000000000000000000000000000000000000000000000000000000000000000000000000000000000000000000000000000000000000000000000000002000000000000000000000000000000000000000000000000000000000000040000000000000000000000000000000000000000000000000000000000000000000000000000",
      "type": "0x2",
      "transactionHash": "0x9a0f6257c6f6063c311e5e80763c4628c38a9356e96f8c83af8b1fd3d3b206ec",
      "transactionIndex": "0x10",
      "blockHash": "0x2e317c1bde2b402b85a348b2b85721af8634c764d206735370ef0a85514200e0",
      "blockNumber": "0x1cc9aa4",
      "gasUsed": "0xbc73",
      "effectiveGasPrice": "0xf428c",
      "from": "0xa5ea1cb1033f5d3bd207bf6a2a2504cf1c3e9f42",
      "to": "0x50df5e25ab60e150f753b9444d160a80f0279559",
      "contractAddress": null,
      "l1BaseFeeScalar": "0x44d",
      "l1BlobBaseFee": "0x764484b",
      "l1BlobBaseFeeScalar": "0xa118b",
      "l1Fee": "0x203e4f5fb",
      "l1GasPrice": "0xffae4b7",
      "l1GasUsed": "0x640"
    },
    {
      "status": "0x1",
      "cumulativeGasUsed": "0x2b4363",
      "logs": [
        {
          "address": "0x50df5e25ab60e150f753b9444d160a80f0279559",
          "topics": [
            "0x238399d427b947898edb290f5ff0f9109849b1c3ba196a42e35f00c50a54b98b"
          ],
          "data": "0x0000000000000000000000000000000000000000000000000000000000009d27000000000000000000000000b63c53cab400622bb1e6ad65e098e7fac7ca7e9d",
          "blockHash": "0x2e317c1bde2b402b85a348b2b85721af8634c764d206735370ef0a85514200e0",
          "blockNumber": "0x1cc9aa4",
          "blockTimestamp": "0x68ac9428",
          "transactionHash": "0x72c5ac35c75055f3d2578093277ba9814de6c67e9144ba4db050728fb84ae2d5",
          "transactionIndex": "0x11",
          "logIndex": "0x42",
          "removed": false
        }
      ],
      "logsBloom": "0x00000000000000000000000000000000000000000000000000000000000000000010000000000080000000000000000000000000000000000800000000000004000000000000000000000000000000000000000000000000000000000000000000000000000000000000000000000000000000000000000000000000000000000000000000000000000000000000000000000000000000000000000000000000000000000000000000000000000000000000000000000000000002000000000000000000000000000000000000000000000000000000000000040000000000000000000000000000000000000000000000000000000000000000000000000000",
      "type": "0x2",
      "transactionHash": "0x72c5ac35c75055f3d2578093277ba9814de6c67e9144ba4db050728fb84ae2d5",
      "transactionIndex": "0x11",
      "blockHash": "0x2e317c1bde2b402b85a348b2b85721af8634c764d206735370ef0a85514200e0",
      "blockNumber": "0x1cc9aa4",
      "gasUsed": "0xbc67",
      "effectiveGasPrice": "0xf428c",
      "from": "0xa5ea1cb1033f5d3bd207bf6a2a2504cf1c3e9f42",
      "to": "0x50df5e25ab60e150f753b9444d160a80f0279559",
      "contractAddress": null,
      "l1BaseFeeScalar": "0x44d",
      "l1BlobBaseFee": "0x764484b",
      "l1BlobBaseFeeScalar": "0xa118b",
      "l1Fee": "0x203e4f5fb",
      "l1GasPrice": "0xffae4b7",
      "l1GasUsed": "0x640"
    }
  ],
  "libraries": [],
  "pending": [],
  "returns": {},
  "timestamp": 1756140585904,
  "chain": 84532,
  "commit": "c1646ab"
}