{
  "transactions": [
    {
      "hash": "0xf9000f4ac24d1b04f3639937258480793e4bfb8e0b9de82d92d1840b44bb0581",
      "transactionType": "CALL",
      "contractName": null,
      "contractAddress": "0x50df5e25ab60e150f753b9444d160a80f0279559",
      "function": "setEnforcedOptions((uint32,uint16,bytes)[])",
      "arguments": [
        "[(40245, 1, 0x00030100110100000000000000000000000000013880), (40231, 1, 0x000301001101000000000000000000000000000186a0)]"
      ],
      "transaction": {
        "from": "0xa5ea1cb1033f5d3bd207bf6a2a2504cf1c3e9f42",
        "to": "0x50df5e25ab60e150f753b9444d160a80f0279559",
        "gas": "0x1bd63",
        "value": "0x0",
        "input": "0xb98bd07000000000000000000000000000000000000000000000000000000000000000200000000000000000000000000000000000000000000000000000000000000002000000000000000000000000000000000000000000000000000000000000004000000000000000000000000000000000000000000000000000000000000000e00000000000000000000000000000000000000000000000000000000000009d3500000000000000000000000000000000000000000000000000000000000000010000000000000000000000000000000000000000000000000000000000000060000000000000000000000000000000000000000000000000000000000000001600030100110100000000000000000000000000013880000000000000000000000000000000000000000000000000000000000000000000000000000000009d27000000000000000000000000000000000000000000000000000000000000000100000000000000000000000000000000000000000000000000000000000000600000000000000000000000000000000000000000000000000000000000000016000301001101000000000000000000000000000186a000000000000000000000",
        "nonce": "0x1d1",
        "chainId": "0x14a34"
      },
      "additionalContracts": [],
      "isFixedGasLimit": false
    }
  ],
  "receipts": [
    {
      "status": "0x1",
      "cumulativeGasUsed": "0x5841f5",
      "logs": [
        {
          "address": "0x50df5e25ab60e150f753b9444d160a80f0279559",
          "topics": [
            "0xbe4864a8e820971c0247f5992e2da559595f7bf076a21cb5928d443d2a13b674"
          ],
          "data": "0x00000000000000000000000000000000000000000000000000000000000000200000000000000000000000000000000000000000000000000000000000000002000000000000000000000000000000000000000000000000000000000000004000000000000000000000000000000000000000000000000000000000000000e00000000000000000000000000000000000000000000000000000000000009d3500000000000000000000000000000000000000000000000000000000000000010000000000000000000000000000000000000000000000000000000000000060000000000000000000000000000000000000000000000000000000000000001600030100110100000000000000000000000000013880000000000000000000000000000000000000000000000000000000000000000000000000000000009d27000000000000000000000000000000000000000000000000000000000000000100000000000000000000000000000000000000000000000000000000000000600000000000000000000000000000000000000000000000000000000000000016000301001101000000000000000000000000000186a000000000000000000000",
          "blockHash": "0x249264b033df74415a63ac628a1bf6a266d45456c1360be25a457a32c8aadf51",
          "blockNumber": "0x1cc9ad4",
          "blockTimestamp": "0x68ac9488",
          "transactionHash": "0xf9000f4ac24d1b04f3639937258480793e4bfb8e0b9de82d92d1840b44bb0581",
          "transactionIndex": "0xf",
          "logIndex": "0x86",
          "removed": false
        }
      ],
      "logsBloom": "0x00000000000000000000000000000000000000000000000000000000000000000010000000000080000000000000000000000000000000000000400000000004000000000000000000000000000000000000000000000000000000000000000000000000000000000000000000000000000000000000000000000000000000000000000000000000000000000000000000000000000000000000000000080000000000000000000000000000000000000000000000000000000000000000000000000000000000000000000002000000000000000000000000000000000000000000000000000000000000000000000000000000000000000000000000000000",
      "type": "0x2",
      "transactionHash": "0xf9000f4ac24d1b04f3639937258480793e4bfb8e0b9de82d92d1840b44bb0581",
      "transactionIndex": "0xf",
      "blockHash": "0x249264b033df74415a63ac628a1bf6a266d45456c1360be25a457a32c8aadf51",
      "blockNumber": "0x1cc9ad4",
      "gasUsed": "0x14274",
      "effectiveGasPrice": "0xf4289",
      "from": "0xa5ea1cb1033f5d3bd207bf6a2a2504cf1c3e9f42",
      "to": "0x50df5e25ab60e150f753b9444d160a80f0279559",
      "contractAddress": null,
      "l1BaseFeeScalar": "0x44d",
      "l1BlobBaseFee": "0x7336577",
      "l1BlobBaseFeeScalar": "0xa118b",
      "l1Fee": "0x2b40bcd4c",
      "l1GasPrice": "0xb5817ad",
      "l1GasUsed": "0x8bc"
    }
  ],
  "libraries": [],
  "pending": [],
  "returns": {},
  "timestamp": 1756140679326,
  "chain": 84532,
  "commit": "c1646ab"
}