{
  "transactions": [
    {
      "hash": "0xfb5bca14561d4f1886f19d93d3b277c43199d24d5561003650133f4cb295718b",
      "transactionType": "CALL",
      "contractName": null,
      "contractAddress": "0xd7bffbf7c7354934f3cbca622c9f90124cbc22af",
      "function": "setEnforcedOptions((uint32,uint16,bytes)[])",
      "arguments": [
        "[(40231, 1, 0x00030100110100000000000000000000000000013880), (40245, 1, 0x000301001101000000000000000000000000000186a0)]"
      ],
      "transaction": {
        "from": "0xa5ea1cb1033f5d3bd207bf6a2a2504cf1c3e9f42",
        "to": "0xd7bffbf7c7354934f3cbca622c9f90124cbc22af",
        "gas": "0x1bd63",
        "value": "0x0",
        "input": "0xb98bd07000000000000000000000000000000000000000000000000000000000000000200000000000000000000000000000000000000000000000000000000000000002000000000000000000000000000000000000000000000000000000000000004000000000000000000000000000000000000000000000000000000000000000e00000000000000000000000000000000000000000000000000000000000009d2700000000000000000000000000000000000000000000000000000000000000010000000000000000000000000000000000000000000000000000000000000060000000000000000000000000000000000000000000000000000000000000001600030100110100000000000000000000000000013880000000000000000000000000000000000000000000000000000000000000000000000000000000009d35000000000000000000000000000000000000000000000000000000000000000100000000000000000000000000000000000000000000000000000000000000600000000000000000000000000000000000000000000000000000000000000016000301001101000000000000000000000000000186a000000000000000000000",
        "nonce": "0x1b6",
        "chainId": "0x14a34"
      },
      "additionalContracts": [],
      "isFixedGasLimit": false
    }
  ],
  "receipts": [
    {
      "status": "0x1",
      "cumulativeGasUsed": "0x99dd8",
      "logs": [
        {
          "address": "0xd7bffbf7c7354934f3cbca622c9f90124cbc22af",
          "topics": [
            "0xbe4864a8e820971c0247f5992e2da559595f7bf076a21cb5928d443d2a13b674"
          ],
          "data": "0x00000000000000000000000000000000000000000000000000000000000000200000000000000000000000000000000000000000000000000000000000000002000000000000000000000000000000000000000000000000000000000000004000000000000000000000000000000000000000000000000000000000000000e00000000000000000000000000000000000000000000000000000000000009d2700000000000000000000000000000000000000000000000000000000000000010000000000000000000000000000000000000000000000000000000000000060000000000000000000000000000000000000000000000000000000000000001600030100110100000000000000000000000000013880000000000000000000000000000000000000000000000000000000000000000000000000000000009d35000000000000000000000000000000000000000000000000000000000000000100000000000000000000000000000000000000000000000000000000000000600000000000000000000000000000000000000000000000000000000000000016000301001101000000000000000000000000000186a000000000000000000000",
          "blockHash": "0xd1d4263dc455dac7acf4facce10fb891a6ddab07867edb192c62b540d4d854cd",
          "blockNumber": "0x1cc7665",
          "blockTimestamp": "0x68ac4baa",
          "transactionHash": "0xfb5bca14561d4f1886f19d93d3b277c43199d24d5561003650133f4cb295718b",
          "transactionIndex": "0x4",
          "logIndex": "0x5",
          "removed": false
        }
      ],
      "logsBloom": "0x00000000000000000000000000000000000000000000000000000000000000000000200000000000000000000000000000000000000000000000400000000000000000000000000000000000000000000000000000000000000000000000000000000000000000000000000000000000000000000000000000000000000000000000000000000000000000000000000000000020000000000000000000080000000000000000000000000000000000000000000000000000000000000000000000000000004000000000000002000000000000000000000000000000000000000000000000000000000000000000000000000000000000000000000000000000",
      "type": "0x2",
      "transactionHash": "0xfb5bca14561d4f1886f19d93d3b277c43199d24d5561003650133f4cb295718b",
      "transactionIndex": "0x4",
      "blockHash": "0xd1d4263dc455dac7acf4facce10fb891a6ddab07867edb192c62b540d4d854cd",
      "blockNumber": "0x1cc7665",
      "gasUsed": "0x14274",
      "effectiveGasPrice": "0xf4285",
      "from": "0xa5ea1cb1033f5d3bd207bf6a2a2504cf1c3e9f42",
      "to": "0xd7bffbf7c7354934f3cbca622c9f90124cbc22af",
      "contractAddress": null,
      "l1BaseFeeScalar": "0x44d",
      "l1BlobBaseFee": "0x45cf0",
      "l1BlobBaseFeeScalar": "0xa118b",
      "l1Fee": "0x179a70d52",
      "l1GasPrice": "0x98bdad4b",
      "l1GasUsed": "0x8bc"
    }
  ],
  "libraries": [],
  "pending": [],
  "returns": {},
  "timestamp": 1756122026487,
  "chain": 84532,
  "commit": "c1646ab"
}