{
  "transactions": [
    {
      "hash": "0x4b3309595380db3c6b60185719b81a86a96c243f90ab1c25319874462fac77b4",
      "transactionType": "CALL",
      "contractName": null,
      "contractAddress": "0x6edce65403992e310a62460808c4b910d972f10f",
      "function": "setSendLibrary(address,uint32,address)",
      "arguments": [
        "0xb63c53cab400622Bb1E6aD65E098E7faC7CA7e9d",
        "40245",
        "0x4f7cd4DA19ABB31b0eC98b9066B9e857B1bf9C0E"
      ],
      "transaction": {
        "from": "0xa5ea1cb1033f5d3bd207bf6a2a2504cf1c3e9f42",
        "to": "0x6edce65403992e310a62460808c4b910d972f10f",
        "gas": "0x12c29",
        "value": "0x0",
        "input": "0x9535ff30000000000000000000000000b63c53cab400622bb1e6ad65e098e7fac7ca7e9d0000000000000000000000000000000000000000000000000000000000009d350000000000000000000000004f7cd4da19abb31b0ec98b9066b9e857b1bf9c0e",
        "nonce": "0x3a0",
        "chainId": "0x66eee"
      },
      "additionalContracts": [],
      "isFixedGasLimit": false
    },
    {
      "hash": "0x52eefa1fc5c3ae6ee6cb28d7ac1048de1314891cf31497fe42a42e423d0d740f",
      "transactionType": "CALL",
      "contractName": null,
      "contractAddress": "0x6edce65403992e310a62460808c4b910d972f10f",
      "function": "setReceiveLibrary(address,uint32,address,uint256)",
      "arguments": [
        "0xb63c53cab400622Bb1E6aD65E098E7faC7CA7e9d",
        "40231",
        "0x75Db67CDab2824970131D5aa9CECfC9F69c69636",
        "0"
      ],
      "transaction": {
        "from": "0xa5ea1cb1033f5d3bd207bf6a2a2504cf1c3e9f42",
        "to": "0x6edce65403992e310a62460808c4b910d972f10f",
        "gas": "0x14e96",
        "value": "0x0",
        "input": "0x6a14d715000000000000000000000000b63c53cab400622bb1e6ad65e098e7fac7ca7e9d0000000000000000000000000000000000000000000000000000000000009d2700000000000000000000000075db67cdab2824970131d5aa9cecfc9f69c696360000000000000000000000000000000000000000000000000000000000000000",
        "nonce": "0x3a1",
        "chainId": "0x66eee"
      },
      "additionalContracts": [],
      "isFixedGasLimit": false
    }
  ],
  "receipts": [
    {
      "status": "0x1",
      "cumulativeGasUsed": "0x9b7b0",
      "logs": [
        {
          "address": "0x6edce65403992e310a62460808c4b910d972f10f",
          "topics": [
            "0x4cff966ebee29a156dcb34cf72c1d06231fb1777f6bdf6e8089819232f002b1c"
          ],
          "data": "0x000000000000000000000000b63c53cab400622bb1e6ad65e098e7fac7ca7e9d0000000000000000000000000000000000000000000000000000000000009d350000000000000000000000004f7cd4da19abb31b0ec98b9066b9e857b1bf9c0e",
          "blockHash": "0xf222d608356e78d795135b2479ff96eca6378d8086a05120a87c8b8364bb392a",
          "blockNumber": "0xb2e8e4f",
          "transactionHash": "0x4b3309595380db3c6b60185719b81a86a96c243f90ab1c25319874462fac77b4",
          "transactionIndex": "0x4",
          "logIndex": "0x13",
          "removed": false
        }
      ],
      "logsBloom": "0x00000000000000000000000000000000000200000000000000000000000000000000000000000000200000000000000000000000000000000000000001000000000000000000000000000000000000000000000000000000000000000000000000000000000000000200000000000000000000000000000000000000000000000000000000000020000000000000000000000000000000000000000000000000000000000000000000000000000000000000000000000000000000000000000000000000000000000000000000000000000000000000000000000000000000000040000000000000000000000000000000000000000000000000000000000000",
      "type": "0x2",
      "transactionHash": "0x4b3309595380db3c6b60185719b81a86a96c243f90ab1c25319874462fac77b4",
      "transactionIndex": "0x4",
      "blockHash": "0xf222d608356e78d795135b2479ff96eca6378d8086a05120a87c8b8364bb392a",
      "blockNumber": "0xb2e8e4f",
      "gasUsed": "0xe352",
      "effectiveGasPrice": "0x5f5e100",
      "from": "0xa5ea1cb1033f5d3bd207bf6a2a2504cf1c3e9f42",
      "to": "0x6edce65403992e310a62460808c4b910d972f10f",
      "contractAddress": null,
      "gasUsedForL1": "0x1d0",
      "l1BlockNumber": "0x8a4717",
      "timeboosted": false
    },
    {
      "status": "0x1",
      "cumulativeGasUsed": "0xfda9",
      "logs": [
        {
          "address": "0x6edce65403992e310a62460808c4b910d972f10f",
          "topics": [
            "0xcd6f92f5ac6185a5acfa02c92090746cec64d777269cbcd0ed031e396657a1c2"
          ],
          "data": "0x000000000000000000000000b63c53cab400622bb1e6ad65e098e7fac7ca7e9d0000000000000000000000000000000000000000000000000000000000009d2700000000000000000000000075db67cdab2824970131d5aa9cecfc9f69c69636",
          "blockHash": "0x78031367541307cd3b6efead145c3ce44b53d782f237ee16e2cbaf9419fb6a79",
          "blockNumber": "0xb2e8e5e",
          "transactionHash": "0x52eefa1fc5c3ae6ee6cb28d7ac1048de1314891cf31497fe42a42e423d0d740f",
          "transactionIndex": "0x1",
          "logIndex": "0x0",
          "removed": false
        },
        {
          "address": "0x6edce65403992e310a62460808c4b910d972f10f",
          "topics": [
            "0x4e0a5bbfa0c11a64effb1ada324b5437a17272e1aed9320398715ef71bb20928"
          ],
          "data": "0x000000000000000000000000b63c53cab400622bb1e6ad65e098e7fac7ca7e9d0000000000000000000000000000000000000000000000000000000000009d2700000000000000000000000000000000000000000000000000000000000000000000000000000000000000000000000000000000000000000000000000000000",
          "blockHash": "0x78031367541307cd3b6efead145c3ce44b53d782f237ee16e2cbaf9419fb6a79",
          "blockNumber": "0xb2e8e5e",
          "transactionHash": "0x52eefa1fc5c3ae6ee6cb28d7ac1048de1314891cf31497fe42a42e423d0d740f",
          "transactionIndex": "0x1",
          "logIndex": "0x1",
          "removed": false
        }
      ],
      "logsBloom": "0x00000000000000000000020800000000000000000000000000000000000000020400000000000000200000000000000000000000000000000000000000000000000000000000000000000000000000000000000000800000000000000000000000000000000000000200000000000000000000000000000000000000000000100000000000000020000000000000000000000000000000000000000000000000000000000000000000000000000000000000000000000000000000000000000000000000000000000000000000000000000000000000000000000000000000000000000000000000000000000000000000000000000000000000000000000000",
      "type": "0x2",
      "transactionHash": "0x52eefa1fc5c3ae6ee6cb28d7ac1048de1314891cf31497fe42a42e423d0d740f",
      "transactionIndex": "0x1",
      "blockHash": "0x78031367541307cd3b6efead145c3ce44b53d782f237ee16e2cbaf9419fb6a79",
      "blockNumber": "0xb2e8e5e",
      "gasUsed": "0xfda9",
      "effectiveGasPrice": "0x5f5e100",
      "from": "0xa5ea1cb1033f5d3bd207bf6a2a2504cf1c3e9f42",
      "to": "0x6edce65403992e310a62460808c4b910d972f10f",
      "contractAddress": null,
      "gasUsedForL1": "0x214",
      "l1BlockNumber": "0x8a4717",
      "timeboosted": false
    }
  ],
  "libraries": [],
  "pending": [],
  "returns": {},
  "timestamp": 1756142793084,
  "chain": 421614,
  "commit": "c1646ab"
}