{
  "transactions": [
    {
      "hash": "0x2cd62634e0eaf09f98d71933dddf1feca4d70892026dc5968b3bc7eca7e0566a",
      "transactionType": "CALL",
      "contractName": null,
      "contractAddress": "0x0320ac8a299b3da6469be3da9ed6c84d09309418",
      "function": "mint(address,uint256)",
      "arguments": [
        "0x71daCe7031A4558A8FB0528708a33643279F5FEb",
        "10000000000"
      ],
      "transaction": {
        "from": "0xa5ea1cb1033f5d3bd207bf6a2a2504cf1c3e9f42",
        "to": "0x0320ac8a299b3da6469be3da9ed6c84d09309418",
        "gas": "0x17524",
        "value": "0x0",
        "input": "0x40c10f1900000000000000000000000071dace7031a4558a8fb0528708a33643279f5feb00000000000000000000000000000000000000000000000000000002540be400",
        "nonce": "0x1d2",
        "chainId": "0x14a34"
      },
      "additionalContracts": [],
      "isFixedGasLimit": false
    },
    {
      "hash": "0x7a1f881694f189eda3bacb43b41a88ced361f024bc5aff26f2a348c53436a6c4",
      "transactionType": "CALL",
      "contractName": null,
      "contractAddress": "0x47e64f8615718d1a3fa34efe7e7b96aa9ac8b7f4",
      "function": "mint(address,uint256)",
      "arguments": [
        "0x71daCe7031A4558A8FB0528708a33643279F5FEb",
        "10000000000"
      ],
      "transaction": {
        "from": "0xa5ea1cb1033f5d3bd207bf6a2a2504cf1c3e9f42",
        "to": "0x47e64f8615718d1a3fa34efe7e7b96aa9ac8b7f4",
        "gas": "0x17524",
        "value": "0x0",
        "input": "0x40c10f1900000000000000000000000071dace7031a4558a8fb0528708a33643279f5feb00000000000000000000000000000000000000000000000000000002540be400",
        "nonce": "0x1d3",
        "chainId": "0x14a34"
      },
      "additionalContracts": [],
      "isFixedGasLimit": false
    }
  ],
  "receipts": [
    {
      "status": "0x1",
      "cumulativeGasUsed": "0x1ae3a8",
      "logs": [
        {
          "address": "0x0320ac8a299b3da6469be3da9ed6c84d09309418",
          "topics": [
            "0xddf252ad1be2c89b69c2b068fc378daa952ba7f163c4a11628f55a4df523b3ef",
            "0x0000000000000000000000000000000000000000000000000000000000000000",
            "0x00000000000000000000000071dace7031a4558a8fb0528708a33643279f5feb"
          ],
          "data": "0x00000000000000000000000000000000000000000000000000000002540be400",
          "blockHash": "0x13aeae706ad860b4d77d828c946102d041e904d729eb75ca0c8fd339d877ebf3",
          "blockNumber": "0x1cc9af5",
          "blockTimestamp": "0x68ac94ca",
          "transactionHash": "0x2cd62634e0eaf09f98d71933dddf1feca4d70892026dc5968b3bc7eca7e0566a",
          "transactionIndex": "0x9",
          "logIndex": "0x44",
          "removed": false
        }
      ],
      "logsBloom": "0x00000000000000000000000000000000000000000000000000000000000000000000000000000000000000000000000000040000000000000000000000000000000000000000000000000008000000000000000000000000000000000000000000000000020000000000000000000800000000000000000000000010000000040000000000000000000000000000000000000000000000000400000000000004000000000000000200000000000000000000000000000000000000000000000000000002000000000000000000000000000000000000000000000000000020000000000000000000000000000000000000000000000000000000000000000040",
      "type": "0x2",
      "transactionHash": "0x2cd62634e0eaf09f98d71933dddf1feca4d70892026dc5968b3bc7eca7e0566a",
      "transactionIndex": "0x9",
      "blockHash": "0x13aeae706ad860b4d77d828c946102d041e904d729eb75ca0c8fd339d877ebf3",
      "blockNumber": "0x1cc9af5",
      "gasUsed": "0x10e26",
      "effectiveGasPrice": "0xf4287",
      "from": "0xa5ea1cb1033f5d3bd207bf6a2a2504cf1c3e9f42",
      "to": "0x0320ac8a299b3da6469be3da9ed6c84d09309418",
      "contractAddress": null,
      "l1BaseFeeScalar": "0x44d",
      "l1BlobBaseFee": "0x8a60f44",
      "l1BlobBaseFeeScalar": "0xa118b",
      "l1Fee": "0x24bbbd5a7",
      "l1GasPrice": "0x9adcc35",
      "l1GasUsed": "0x640"
    },
    {
      "status": "0x1",
      "cumulativeGasUsed": "0x1bf1ce",
      "logs": [
        {
          "address": "0x47e64f8615718d1a3fa34efe7e7b96aa9ac8b7f4",
          "topics": [
            "0xddf252ad1be2c89b69c2b068fc378daa952ba7f163c4a11628f55a4df523b3ef",
            "0x0000000000000000000000000000000000000000000000000000000000000000",
            "0x00000000000000000000000071dace7031a4558a8fb0528708a33643279f5feb"
          ],
          "data": "0x00000000000000000000000000000000000000000000000000000002540be400",
          "blockHash": "0x13aeae706ad860b4d77d828c946102d041e904d729eb75ca0c8fd339d877ebf3",
          "blockNumber": "0x1cc9af5",
          "blockTimestamp": "0x68ac94ca",
          "transactionHash": "0x7a1f881694f189eda3bacb43b41a88ced361f024bc5aff26f2a348c53436a6c4",
          "transactionIndex": "0xa",
          "logIndex": "0x45",
          "removed": false
        }
      ],
      "logsBloom": "0x00000000000000000000000000000000000000000000000000000000000000000000000000000000000000000000000000000000000000000000000000000000000000000000000000000008000000000000000000000000000000000000000000000000020000000000000000000800000000000000000000000010000000040000000000000000000000000000000000000000000000000400000000000004000000000000000000000000000000000000000000000000000000000000012000000002000000000000000000000000000000000000000000000000008020000000000000000000000000000000000000000000000000000000000000000000",
      "type": "0x2",
      "transactionHash": "0x7a1f881694f189eda3bacb43b41a88ced361f024bc5aff26f2a348c53436a6c4",
      "transactionIndex": "0xa",
      "blockHash": "0x13aeae706ad860b4d77d828c946102d041e904d729eb75ca0c8fd339d877ebf3",
      "blockNumber": "0x1cc9af5",
      "gasUsed": "0x10e26",
      "effectiveGasPrice": "0xf4287",
      "from": "0xa5ea1cb1033f5d3bd207bf6a2a2504cf1c3e9f42",
      "to": "0x47e64f8615718d1a3fa34efe7e7b96aa9ac8b7f4",
      "contractAddress": null,
      "l1BaseFeeScalar": "0x44d",
      "l1BlobBaseFee": "0x8a60f44",
      "l1BlobBaseFeeScalar": "0xa118b",
      "l1Fee": "0x24bbbd5a7",
      "l1GasPrice": "0x9adcc35",
      "l1GasUsed": "0x640"
    }
  ],
  "libraries": [],
  "pending": [],
  "returns": {},
  "timestamp": 1756140745073,
  "chain": 84532,
  "commit": "c1646ab"
}