{
  "transactions": [
    {
      "hash": "0x7c479897f6d8087bb06f573af145b0d91d6e1fbebe718a60e66f1abaefc696a0",
      "transactionType": "CALL",
      "contractName": null,
      "contractAddress": "0x0320ac8a299b3da6469be3da9ed6c84d09309418",
      "function": "mint(address,uint256)",
      "arguments": [
        "0xa5ea1Cb1033F5d3BD207bF6a2a2504cF1c3e9F42",
        "10000000000"
      ],
      "transaction": {
        "from": "0xa5ea1cb1033f5d3bd207bf6a2a2504cf1c3e9f42",
        "to": "0x0320ac8a299b3da6469be3da9ed6c84d09309418",
        "gas": "0x12966",
        "value": "0x0",
        "input": "0x40c10f19000000000000000000000000a5ea1cb1033f5d3bd207bf6a2a2504cf1c3e9f4200000000000000000000000000000000000000000000000000000002540be400",
        "nonce": "0x1d4",
        "chainId": "0x14a34"
      },
      "additionalContracts": [],
      "isFixedGasLimit": false
    },
    {
      "hash": "0xb1067b9e3691623d969c1e24a55c7a0e48ee933fb3474122bfee64aeb352f530",
      "transactionType": "CALL",
      "contractName": null,
      "contractAddress": "0x47e64f8615718d1a3fa34efe7e7b96aa9ac8b7f4",
      "function": "mint(address,uint256)",
      "arguments": [
        "0xa5ea1Cb1033F5d3BD207bF6a2a2504cF1c3e9F42",
        "10000000000"
      ],
      "transaction": {
        "from": "0xa5ea1cb1033f5d3bd207bf6a2a2504cf1c3e9f42",
        "to": "0x47e64f8615718d1a3fa34efe7e7b96aa9ac8b7f4",
        "gas": "0x12966",
        "value": "0x0",
        "input": "0x40c10f19000000000000000000000000a5ea1cb1033f5d3bd207bf6a2a2504cf1c3e9f4200000000000000000000000000000000000000000000000000000002540be400",
        "nonce": "0x1d5",
        "chainId": "0x14a34"
      },
      "additionalContracts": [],
      "isFixedGasLimit": false
    }
  ],
  "receipts": [
    {
      "status": "0x1",
      "cumulativeGasUsed": "0x2d5394",
      "logs": [
        {
          "address": "0x0320ac8a299b3da6469be3da9ed6c84d09309418",
          "topics": [
            "0xddf252ad1be2c89b69c2b068fc378daa952ba7f163c4a11628f55a4df523b3ef",
            "0x0000000000000000000000000000000000000000000000000000000000000000",
            "0x000000000000000000000000a5ea1cb1033f5d3bd207bf6a2a2504cf1c3e9f42"
          ],
          "data": "0x00000000000000000000000000000000000000000000000000000002540be400",
          "blockHash": "0x3c0f6e0a73a8a7b72102ba7100d02dae3b1385a6feb579f17780d3253d99a00c",
          "blockNumber": "0x1cc9c2d",
          "blockTimestamp": "0x68ac973a",
          "transactionHash": "0x7c479897f6d8087bb06f573af145b0d91d6e1fbebe718a60e66f1abaefc696a0",
          "transactionIndex": "0xc",
          "logIndex": "0x73",
          "removed": false
        }
      ],
      "logsBloom": "0x00000000000000000000000000000000000000000000000000000000000000000000000000000000000000000000000000040000000000000000000000000000008000000000000000000008000000000000000000000000000000000000000000000000020000000000000000000800000000000000100000000010000000000000000000000000000000000000000000000000000000000000000000000000000000000000000200000000000000000000000000000000000000000000000000000002000000000000000000000020000000000000000000000000000020000000000000000000000000000000000000000000000000000000000000000040",
      "type": "0x2",
      "transactionHash": "0x7c479897f6d8087bb06f573af145b0d91d6e1fbebe718a60e66f1abaefc696a0",
      "transactionIndex": "0xc",
      "blockHash": "0x3c0f6e0a73a8a7b72102ba7100d02dae3b1385a6feb579f17780d3253d99a00c",
      "blockNumber": "0x1cc9c2d",
      "gasUsed": "0xcb5a",
      "effectiveGasPrice": "0xf428e",
      "from": "0xa5ea1cb1033f5d3bd207bf6a2a2504cf1c3e9f42",
      "to": "0x0320ac8a299b3da6469be3da9ed6c84d09309418",
      "contractAddress": null,
      "l1BaseFeeScalar": "0x44d",
      "l1BlobBaseFee": "0xf61eed5",
      "l1BlobBaseFeeScalar": "0xa118b",
      "l1Fee": "0x40269012d",
      "l1GasPrice": "0x6775f9c",
      "l1GasUsed": "0x640"
    },
    {
      "status": "0x1",
      "cumulativeGasUsed": "0x2e1eee",
      "logs": [
        {
          "address": "0x47e64f8615718d1a3fa34efe7e7b96aa9ac8b7f4",
          "topics": [
            "0xddf252ad1be2c89b69c2b068fc378daa952ba7f163c4a11628f55a4df523b3ef",
            "0x0000000000000000000000000000000000000000000000000000000000000000",
            "0x000000000000000000000000a5ea1cb1033f5d3bd207bf6a2a2504cf1c3e9f42"
          ],
          "data": "0x00000000000000000000000000000000000000000000000000000002540be400",
          "blockHash": "0x3c0f6e0a73a8a7b72102ba7100d02dae3b1385a6feb579f17780d3253d99a00c",
          "blockNumber": "0x1cc9c2d",
          "blockTimestamp": "0x68ac973a",
          "transactionHash": "0xb1067b9e3691623d969c1e24a55c7a0e48ee933fb3474122bfee64aeb352f530",
          "transactionIndex": "0xd",
          "logIndex": "0x74",
          "removed": false
        }
      ],
      "logsBloom": "0x00000000000000000000000000000000000000000000000000000000000000000000000000000000000000000000000000000000000000000000000000000000008000000000000000000008000000000000000000000000000000000000000000000000020000000000000000000800000000000000100000000010000000000000000000000000000000000000000000000000000000000000000000000000000000000000000000000000000000000000000000000000000000000000012000000002000000000000000000000020000000000000000000000000008020000000000000000000000000000000000000000000000000000000000000000000",
      "type": "0x2",
      "transactionHash": "0xb1067b9e3691623d969c1e24a55c7a0e48ee933fb3474122bfee64aeb352f530",
      "transactionIndex": "0xd",
      "blockHash": "0x3c0f6e0a73a8a7b72102ba7100d02dae3b1385a6feb579f17780d3253d99a00c",
      "blockNumber": "0x1cc9c2d",
      "gasUsed": "0xcb5a",
      "effectiveGasPrice": "0xf428e",
      "from": "0xa5ea1cb1033f5d3bd207bf6a2a2504cf1c3e9f42",
      "to": "0x47e64f8615718d1a3fa34efe7e7b96aa9ac8b7f4",
      "contractAddress": null,
      "l1BaseFeeScalar": "0x44d",
      "l1BlobBaseFee": "0xf61eed5",
      "l1BlobBaseFeeScalar": "0xa118b",
      "l1Fee": "0x40269012d",
      "l1GasPrice": "0x6775f9c",
      "l1GasUsed": "0x640"
    }
  ],
  "libraries": [],
  "pending": [],
  "returns": {},
  "timestamp": 1756141369408,
  "chain": 84532,
  "commit": "c1646ab"
}