{
  "transactions": [
    {
      "hash": "0x41ab407d0f49e61c5fc4c12b5d4b4fe0e8fdb2554920925bff5105f93221a678",
      "transactionType": "CALL",
      "contractName": null,
      "contractAddress": "0x918db59ab880cc3c27d182c813ebe3f400436979",
      "function": "mint(address,uint256)",
      "arguments": [
        "0xa5ea1Cb1033F5d3BD207bF6a2a2504cF1c3e9F42",
        "10000000000"
      ],
      "transaction": {
        "from": "0xa5ea1cb1033f5d3bd207bf6a2a2504cf1c3e9f42",
        "to": "0x918db59ab880cc3c27d182c813ebe3f400436979",
        "gas": "0x17524",
        "value": "0x0",
        "input": "0x40c10f19000000000000000000000000a5ea1cb1033f5d3bd207bf6a2a2504cf1c3e9f4200000000000000000000000000000000000000000000000000000002540be400",
        "nonce": "0x1ed",
        "chainId": "0x14a34"
      },
      "additionalContracts": [],
      "isFixedGasLimit": false
    },
    {
      "hash": "0x9680858c7b44dcafaf856aeb2911aa31d66f14cc9a5876b116b14df09b2e3799",
      "transactionType": "CALL",
      "contractName": null,
      "contractAddress": "0xe95642e030b5d27d03dd255cc855a576fbc4f83d",
      "function": "mint(address,uint256)",
      "arguments": [
        "0xa5ea1Cb1033F5d3BD207bF6a2a2504cF1c3e9F42",
        "10000000000"
      ],
      "transaction": {
        "from": "0xa5ea1cb1033f5d3bd207bf6a2a2504cf1c3e9f42",
        "to": "0xe95642e030b5d27d03dd255cc855a576fbc4f83d",
        "gas": "0x17524",
        "value": "0x0",
        "input": "0x40c10f19000000000000000000000000a5ea1cb1033f5d3bd207bf6a2a2504cf1c3e9f4200000000000000000000000000000000000000000000000000000002540be400",
        "nonce": "0x1ee",
        "chainId": "0x14a34"
      },
      "additionalContracts": [],
      "isFixedGasLimit": false
    }
  ],
  "receipts": [
    {
      "status": "0x1",
      "cumulativeGasUsed": "0x154654a",
      "logs": [
        {
          "address": "0x918db59ab880cc3c27d182c813ebe3f400436979",
          "topics": [
            "0xddf252ad1be2c89b69c2b068fc378daa952ba7f163c4a11628f55a4df523b3ef",
            "0x0000000000000000000000000000000000000000000000000000000000000000",
            "0x000000000000000000000000a5ea1cb1033f5d3bd207bf6a2a2504cf1c3e9f42"
          ],
          "data": "0x00000000000000000000000000000000000000000000000000000002540be400",
          "blockHash": "0xa7a0a8b34660e73334f85e5a88f9ca07d0dee40ca033a26d10988d98566df2b6",
          "blockNumber": "0x1ccfaaf",
          "blockTimestamp": "0x68ad543e",
          "transactionHash": "0x41ab407d0f49e61c5fc4c12b5d4b4fe0e8fdb2554920925bff5105f93221a678",
          "transactionIndex": "0x11",
          "logIndex": "0x1d8",
          "removed": false
        }
      ],
      "logsBloom": "0x0000000000000000000000000000000000000000000000000000000000000000000000000000000000000000000000040000000000000000000000000000000000800000000000000000000c000000000000000000000000000000000000000000000000020000000000000000000800000000000000100000000010000000000000000000000000000000000000000000000000000000000000000000000000000000000000000000000000000000000000000000000080000000000000000000000002000000000000000000000020000000000000000000000000000020000000000000000000000000000000000000000000000000000000000000000000",
      "type": "0x2",
      "transactionHash": "0x41ab407d0f49e61c5fc4c12b5d4b4fe0e8fdb2554920925bff5105f93221a678",
      "transactionIndex": "0x11",
      "blockHash": "0xa7a0a8b34660e73334f85e5a88f9ca07d0dee40ca033a26d10988d98566df2b6",
      "blockNumber": "0x1ccfaaf",
      "gasUsed": "0x10e26",
      "effectiveGasPrice": "0xf4285",
      "from": "0xa5ea1cb1033f5d3bd207bf6a2a2504cf1c3e9f42",
      "to": "0x918db59ab880cc3c27d182c813ebe3f400436979",
      "contractAddress": null,
      "l1BaseFeeScalar": "0x44d",
      "l1BlobBaseFee": "0x1",
      "l1BlobBaseFeeScalar": "0xa118b",
      "l1Fee": "0x4a1568",
      "l1GasPrice": "0x2a0dde",
      "l1GasUsed": "0x640"
    },
    {
      "status": "0x1",
      "cumulativeGasUsed": "0x1557370",
      "logs": [
        {
          "address": "0xe95642e030b5d27d03dd255cc855a576fbc4f83d",
          "topics": [
            "0xddf252ad1be2c89b69c2b068fc378daa952ba7f163c4a11628f55a4df523b3ef",
            "0x0000000000000000000000000000000000000000000000000000000000000000",
            "0x000000000000000000000000a5ea1cb1033f5d3bd207bf6a2a2504cf1c3e9f42"
          ],
          "data": "0x00000000000000000000000000000000000000000000000000000002540be400",
          "blockHash": "0xa7a0a8b34660e73334f85e5a88f9ca07d0dee40ca033a26d10988d98566df2b6",
          "blockNumber": "0x1ccfaaf",
          "blockTimestamp": "0x68ad543e",
          "transactionHash": "0x9680858c7b44dcafaf856aeb2911aa31d66f14cc9a5876b116b14df09b2e3799",
          "transactionIndex": "0x12",
          "logIndex": "0x1d9",
          "removed": false
        }
      ],
      "logsBloom": "0x00000000000000000000000000000000000000000000000000000000000000000000000080000000000000000000000000000000000000000000000000000000008000000000000000000008000000000000000000000000000000000000000000000000020000000000000000000800000000000000100000000010000000000000000000000000000010000000000000000000000000000000000000000000000000000000000000000000000000000000000000000000000000000000000000000002000000000000000000000020000000000000010000000000000020000000000000000000000000000000000000000000000000000000000000000000",
      "type": "0x2",
      "transactionHash": "0x9680858c7b44dcafaf856aeb2911aa31d66f14cc9a5876b116b14df09b2e3799",
      "transactionIndex": "0x12",
      "blockHash": "0xa7a0a8b34660e73334f85e5a88f9ca07d0dee40ca033a26d10988d98566df2b6",
      "blockNumber": "0x1ccfaaf",
      "gasUsed": "0x10e26",
      "effectiveGasPrice": "0xf4285",
      "from": "0xa5ea1cb1033f5d3bd207bf6a2a2504cf1c3e9f42",
      "to": "0xe95642e030b5d27d03dd255cc855a576fbc4f83d",
      "contractAddress": null,
      "l1BaseFeeScalar": "0x44d",
      "l1BlobBaseFee": "0x1",
      "l1BlobBaseFeeScalar": "0xa118b",
      "l1Fee": "0x4a1568",
      "l1GasPrice": "0x2a0dde",
      "l1GasUsed": "0x640"
    }
  ],
  "libraries": [],
  "pending": [],
  "returns": {},
  "timestamp": 1756189759631,
  "chain": 84532,
  "commit": "0d3f7ad"
}