{
  "transactions": [
    {
      "hash": "0xa42e1f57c716c1f6c245b5a9b1ea2775f50b75463dcb42d2100063164f0113d4",
      "transactionType": "CALL",
      "contractName": null,
      "contractAddress": "0x0c670d0d40aad99cb68d5b3a92dacd6e8d4d6566",
      "function": "mint(address,uint256)",
      "arguments": [
        "0xa5ea1Cb1033F5d3BD207bF6a2a2504cF1c3e9F42",
        "10000000000"
      ],
      "transaction": {
        "from": "0xa5ea1cb1033f5d3bd207bf6a2a2504cf1c3e9f42",
        "to": "0x0c670d0d40aad99cb68d5b3a92dacd6e8d4d6566",
        "gas": "0x1745a",
        "value": "0x0",
        "input": "0x40c10f19000000000000000000000000a5ea1cb1033f5d3bd207bf6a2a2504cf1c3e9f4200000000000000000000000000000000000000000000000000000002540be400",
        "nonce": "0x1b9",
        "chainId": "0x14a34"
      },
      "additionalContracts": [],
      "isFixedGasLimit": false
    },
    {
      "hash": "0xe76124707516d8814835b93355db3d359b51f69e3fb1363264c5bb0b81bfe82d",
      "transactionType": "CALL",
      "contractName": null,
      "contractAddress": "0x8b29469e1e768f60427be21f655be5e768372f41",
      "function": "mint(address,uint256)",
      "arguments": [
        "0xa5ea1Cb1033F5d3BD207bF6a2a2504cF1c3e9F42",
        "10000000000"
      ],
      "transaction": {
        "from": "0xa5ea1cb1033f5d3bd207bf6a2a2504cf1c3e9f42",
        "to": "0x8b29469e1e768f60427be21f655be5e768372f41",
        "gas": "0x1745a",
        "value": "0x0",
        "input": "0x40c10f19000000000000000000000000a5ea1cb1033f5d3bd207bf6a2a2504cf1c3e9f4200000000000000000000000000000000000000000000000000000002540be400",
        "nonce": "0x1ba",
        "chainId": "0x14a34"
      },
      "additionalContracts": [],
      "isFixedGasLimit": false
    }
  ],
  "receipts": [
    {
      "status": "0x1",
      "cumulativeGasUsed": "0x16e61b",
      "logs": [
        {
          "address": "0x0c670d0d40aad99cb68d5b3a92dacd6e8d4d6566",
          "topics": [
            "0xddf252ad1be2c89b69c2b068fc378daa952ba7f163c4a11628f55a4df523b3ef",
            "0x0000000000000000000000000000000000000000000000000000000000000000",
            "0x000000000000000000000000a5ea1cb1033f5d3bd207bf6a2a2504cf1c3e9f42"
          ],
          "data": "0x00000000000000000000000000000000000000000000000000000002540be400",
          "blockHash": "0x571f05493d7f5799192b6b7630b13de8b398afb627dfa879cfb855d45a5704b6",
          "blockNumber": "0x1cc78c7",
          "blockTimestamp": "0x68ac506e",
          "transactionHash": "0xa42e1f57c716c1f6c245b5a9b1ea2775f50b75463dcb42d2100063164f0113d4",
          "transactionIndex": "0x10",
          "logIndex": "0x12",
          "removed": false
        }
      ],
      "logsBloom": "0x00000000000000000000000000000000000000000000000000000000000000000000000000000000000000000000000000000000000000000000000000000000008000000000000000000008000000000000000000000000000000000000000000000000020000000000000000000800000000000000100000000010000000000000000000000000000000000000000000000000000000000000000000000000000000000000000000000000000000000000000000000002020000000000000000000002000000000000000000000020000000000000000000000000000020000000000000000000000000000000000000000000000000100000000000000000",
      "type": "0x2",
      "transactionHash": "0xa42e1f57c716c1f6c245b5a9b1ea2775f50b75463dcb42d2100063164f0113d4",
      "transactionIndex": "0x10",
      "blockHash": "0x571f05493d7f5799192b6b7630b13de8b398afb627dfa879cfb855d45a5704b6",
      "blockNumber": "0x1cc78c7",
      "gasUsed": "0x10d94",
      "effectiveGasPrice": "0xf4285",
      "from": "0xa5ea1cb1033f5d3bd207bf6a2a2504cf1c3e9f42",
      "to": "0x0c670d0d40aad99cb68d5b3a92dacd6e8d4d6566",
      "contractAddress": null,
      "l1BaseFeeScalar": "0x44d",
      "l1BlobBaseFee": "0x174beb",
      "l1BlobBaseFeeScalar": "0xa118b",
      "l1Fee": "0x1d320a070",
      "l1GasPrice": "0x105c377b1",
      "l1GasUsed": "0x640"
    },
    {
      "status": "0x1",
      "cumulativeGasUsed": "0x17f3af",
      "logs": [
        {
          "address": "0x8b29469e1e768f60427be21f655be5e768372f41",
          "topics": [
            "0xddf252ad1be2c89b69c2b068fc378daa952ba7f163c4a11628f55a4df523b3ef",
            "0x0000000000000000000000000000000000000000000000000000000000000000",
            "0x000000000000000000000000a5ea1cb1033f5d3bd207bf6a2a2504cf1c3e9f42"
          ],
          "data": "0x00000000000000000000000000000000000000000000000000000002540be400",
          "blockHash": "0x571f05493d7f5799192b6b7630b13de8b398afb627dfa879cfb855d45a5704b6",
          "blockNumber": "0x1cc78c7",
          "blockTimestamp": "0x68ac506e",
          "transactionHash": "0xe76124707516d8814835b93355db3d359b51f69e3fb1363264c5bb0b81bfe82d",
          "transactionIndex": "0x11",
          "logIndex": "0x13",
          "removed": false
        }
      ],
      "logsBloom": "0x00000000002000000000000000000000000000000000000000000000000000000000000000000000000000000000000000000000000000000000000000000000008000000000000000000008000000000000000000000000000000000000000000000000020000000000000000000800000000000000100000000010000000000000000000000000000000000000000000000000000000000000000000000000000000000000000000000000000000000000000000004000000000000000000000000002000000000000000000000020000000000000000000000000000020000000000000000000000001000000000000000000000000000000000000000000",
      "type": "0x2",
      "transactionHash": "0xe76124707516d8814835b93355db3d359b51f69e3fb1363264c5bb0b81bfe82d",
      "transactionIndex": "0x11",
      "blockHash": "0x571f05493d7f5799192b6b7630b13de8b398afb627dfa879cfb855d45a5704b6",
      "blockNumber": "0x1cc78c7",
      "gasUsed": "0x10d94",
      "effectiveGasPrice": "0xf4285",
      "from": "0xa5ea1cb1033f5d3bd207bf6a2a2504cf1c3e9f42",
      "to": "0x8b29469e1e768f60427be21f655be5e768372f41",
      "contractAddress": null,
      "l1BaseFeeScalar": "0x44d",
      "l1BlobBaseFee": "0x174beb",
      "l1BlobBaseFeeScalar": "0xa118b",
      "l1Fee": "0x1d320a070",
      "l1GasPrice": "0x105c377b1",
      "l1GasUsed": "0x640"
    }
  ],
  "libraries": [],
  "pending": [],
  "returns": {},
  "timestamp": 1756123245322,
  "chain": 84532,
  "commit": "c1646ab"
}